:020000040800F2
:10000000F80400209D010008C31C0008B51A000870
:10001000C11C0008B10200087124000800000000A3
:10002000000000000000000000000000791F000830
:10003000B302000800000000C51C00087B1F000878
:10004000B7010008B7010008B7010008B7010008B0
:10005000B7010008B7010008B7010008B7010008A0
:10006000B7010008B7010008CB020008B70100087B
:10007000B7010008B7010008B7010008B701000880
:10008000B7010008B7010008B7010008B701000870
:10009000B7010008B7010008B7010008D102000845
:1000A000B7010008B7010008B7010008B701000850
:1000B000B7010008B7010008B7010008B701000840
:1000C000B7010008B7010008B7010008B701000830
:1000D000B7010008B7010008B7010008B701000820
:1000E000B5020008B7010008B7010008B701000811
:1000F000B7010008B7010008B7010008B701000800
:10010000B7010008B7010008B7010008B7010008EF
:10011000B7010008B7010008B7010008B7010008DF
:10012000B7010008B7010008B7010008B7010008CF
:10013000B7010008B7010008B7010008B7010008BF
:10014000B7010008B7010008B7010008B7010008AF
:10015000B7010008B7010008B7010008B70100089F
:10016000B7010008B7010008B7010008B70100088F
:10017000B7010008B7010008B7010008000000003F
:10018000B7010008B7010008DFF80CD000F07EF8D6
:1001900000480047B1240008F804002006488047C2
:1001A00006480047FEE7FEE7FEE7FEE7FEE7FEE75C
:1001B000FEE7FEE7FEE7FEE71D20000889010008D4
:1001C0002DE9F05F0546002092469B46884606468C
:1001D000814640241BE0284641464746224600F01F
:1001E00044F853465A46C01A914110D31146184656
:1001F000224600F02BF82D1A67EB01084F462246E5
:100200000120002100F022F817EB00094E41201ECA
:10021000A4F10104DFDC484631462A46434600F09B
:1002200000B830BCBDE8C09FD2B201E000F8012B9D
:10023000491EFBD270470022F6E710B513460A4666
:1002400004461946FFF7F0FF204610BD202A04DBC4
:10025000203A00FA02F1002070479140C2F12003D9
:1002600020FA03F3194390407047202A04DB203A18
:1002700021FA02F00021704721FA02F3D040C2F1C6
:10028000200291400843194670470000064C074D74
:1002900006E0E06840F0010394E807009847103456
:1002A000AC42F6D3FFF774FF382500085825000844
:1002B000FEE7704710B54FF4806000F0DBFBBDE84F
:1002C00010404FF4005000F0D5BB102000F0D2BB1E
:1002D00010B5202000F0CEFBBDE81040402000F01B
:1002E000C9BB00002DE9F047044690F850009AB0D1
:1002F0000D464FF00008012813D0012084F850006B
:10030000304E20684FF00009B0420ED12E4F0097BA
:10031000384601F0DEFB8246206801F0DAFB60B16E
:100320000EE002201AB0BDE8F087616D41F02001B7
:10033000616584F850900120F4E7BAF1000F09D00C
:10034000606D40F0200060654FF0010884F8509027
:100350004046E7E71D4829681D4A0029816840F6A4
:100360001F7321F460411BD094F830C041EA4C3136
:10037000D5F804C041EA0C018160B168BE6801F0A3
:10038000010106F001069268314302F001021143B7
:10039000DCD1AA682968114382689A4311430EE0B0
:1003A0008160B168BD6801F0010105F00105926846
:1003B000294302F001021143C8D181689943816049
:1003C000C4E7000000000450000104500003045082
:1003D000000204502DE9F84F00270446009790F8DA
:1003E0005000DFF8B8930D46B846012811D0012619
:1003F00084F85060206801F068FB60B1606D40F0E7
:10040000200060655FF0010784F85080384600F0F6
:10041000DDB90220FBE768680C23052812D8022802
:1004200007D0032807D0042807D0052807D00620C6
:1004300007E06B6006E0122003E0182001E04FF4B3
:1004400080706860D5E90021206803EA91131844A0
:10045000036B01F01F014FF01F0C0CFA01FCC2F3FB
:10046000846223EA0C038A4013430363206801F08B
:100470002CFB8246206801F024FB5AEA00001DD1C3
:10048000AA682968206801F028FB20686969C268A9
:10049000C2F3C102520091402A69042A0FD000EB36
:1004A00082002B68026EDFF8F8C203F0F84302EA1C
:1004B0000C020B431A4342F00041016672E0002136
:1004C00001F0F9FA400320684FF0000172D001F00A
:1004D000F2FA90FAA0F0B0FA80F1286842036ED0E8
:1004E00090FAA0F0B0FA80F0814204D100221146C7
:1004F000206801F001FB0121206801F0DCFA4003D3
:1005000020684FF001015DD001F0D5FA90FAA0F01B
:10051000B0FA80F12868420359D090FAA0F0B0FAFE
:1005200080F0814204D100220121206801F0E4FA28
:100530000221206801F0BFFA400320684FF0020159
:1005400048D001F0B8FA90FAA0F0B0FA80F128682B
:10055000420344D090FAA0F0B0FA80F0814204D176
:1005600000220221206801F0C7FA0321206801F06F
:10057000A2FA400320684FF0030133D001F09BFA48
:1005800090FAA0F0B0FA80F1286842032FD090FAD8
:10059000A0F0B0FA80F0814204D10022032120684B
:1005A00001F0AAFA2068816811F0010F22D0ACE0B6
:1005B00000E004E001F07FFAC0F384618DE7C0F34E
:1005C000846091E701F077FAC0F38461A2E7C0F399
:1005D0008460A6E701F06FFAC0F38461B7E7C0F367
:1005E0008460BBE701F067FAC0F38461CCE7C0F335
:1005F0008460D0E72A7B296850F8B03FC1F3120C21
:1006000023EA0C0302F0180C664A22FA0CF20A40A4
:1006100013430360E968494577D1286841031CD03A
:1006200090FAA0F1B1FA81F1491C01F01F010929EA
:100630004FEA403132D8002912D000BF90FAA0F121
:10064000B1FA81F101F1010101F01F0106FA01F691
:1006500009D100BFC0F3846109E0C0F38461E3E71E
:10066000C0F38461EEE790FAA0F1B1FA81F101F1F3
:10067000010101F01F0146EA816102D1C0F38460EB
:1006800003E090FAA0F0B0FA80F000F1010000F071
:100690001F0000EB400041EA005132E000290ED07B
:1006A00090FAA0F1B1FA81F101F1010101F01F010D
:1006B00006FA01F606D100BFC0F3846106E0C0F37C
:1006C0008461F1E790FAA0F1B1FA81F101F1010141
:1006D00001F01F0146EA816102D1C0F3846003E0AA
:1006E00090FAA0F0B0FA80F000F1010000F01F00D5
:1006F0002D4A00EB400002EB005041EA000141F0BE
:100700000071AA68206801F0E8F928482A680242C6
:100710003FF47AAE26488168264E274B274D01F0DC
:10072000E071B2421CD10E021AD422689A4202D061
:10073000AA427FF469AE826841F4000122F0E072BF
:100740000A4382601E481F490068B0FBF1F000EBCD
:100750004000800000E0401E00900028FBD153E6DE
:10076000194EB24209D1CE0107D422689A4201D073
:10077000AA42F4D141F080710AE06FF00045EA42EC
:10078000EDD14A02EBD422689A42E8D141F48001CB
:10079000826822F0E0720A43826035E600007F4002
:1007A00000F0FF03FFFF0700000020FE00000880AC
:1007B00000030450000052C700000450000204501F
:1007C00010000020400D0300000084CB18BCBDE8E1
:1007D000E08F0000F8B54FF0000504002E460095AC
:1007E00002D0606D10B107E00120F8BD204600F096
:1007F000D5F8A66584F8506020688168C1F340711F
:1008000019B181685B4A1140816020688168C1F339
:10081000007179B98168584A114041F08051816076
:10082000564857490068B0FBF1F000E0401E0090C8
:100830000028FBD120688168C1F3007141B9616D66
:1008400041F010016165A16D41F00101A165012533
:1008500001F03BF9616DC90600D430B1606D40F024
:100860001000606501252846F8BD606D20F4807099
:1008700040F0020060652068806810F0010F15D11B
:1008800040488068404900F00100896801F001019A
:1008900008433E49896801F00101084306D13C49FB
:1008A00060688A6822F47C1202438A60E168606BA7
:1008B000627E0843A16841EA4231084394F820105F
:1008C00040EA0140012904D1A18C324A02EB4141A6
:1008D0000843A16A29B101F47071E26A014342EA56
:1008E00001002268D1682C4B19400143D160206877
:1008F00001F0EBF80646206801F0E3F8304315D12B
:10090000207E94F830102268800340EA4101D068CC
:1009100044F2020398430843D06094F83800012859
:100920000CD02068016921F00101016120690128D2
:100930002068016B21F00F0111D013E0D4E90F0101
:100940000843D4E911121143084321680A6940F2AF
:10095000FC739A43104340F001000861E6E7E26946
:10096000521E11430163606D20F0020040F001004F
:10097000606578E7C0FFFF5FC0FFFF7F10000020C9
:10098000400D030000000450000104500002045018
:10099000000304500000FEFF07C0F0FF10B586B052
:1009A000044614216846FFF746FC11492068884236
:1009B0001BD11048C16C41F40051C164C16C01F4F9
:1009C00000510591C16C41F00101C164C06C6946E0
:1009D00000F001000590012000900B200190002004
:1009E00002904FF0904000F051F806B010BD0000AA
:1009F000000004500010024070B5044600F086F973
:100A00000546601C02D004480078044400F07EF9DA
:100A1000401BA042FAD370BD04000020F0B404468D
:100A20001248134A4FF48061102C15D001238D1009
:100A30004FF09046202C06D0402C07D08C4211D18C
:100A4000537001220BE01370012202E000201070AD
:100A500002462946304602E0032353700022F0BCD0
:100A600000F04FB99370F0BC7047000000040048DC
:100A700000000020044910B50A68024202D0086054
:100A8000FFF7CCFF10BD0000140401402DE9F04F2A
:100A9000DFF83492002309F1040A012403250AF146
:100AA000040B87B00F270BF1040E04E104FA03F6E0
:100AB00032407CD0D1F804C0BCF1010F08D0BCF1A9
:100AC000020F05D0BCF1110F02D0BCF1120F29D1D9
:100AD000D0F808C0CDF800C04FEA430C05FA0CF876
:100AE000CDF80CC0DDF800C02CEA080CCDF800C031
:100AF000D1F80C80DDF80CC008FA0CF8DDF800C065
:100B000048EA0C08C0F80880D0F8048091F804C0C6
:100B100028EA0608CCF3001C0CFA03FC4CEA080C8B
:100B2000C0F804C0D1F804806FEA080C5FEA8C7C3E
:100B300009D1D0F82CC02CEA060CC8F3C0069E40A0
:100B400046EA0C06C662D0F80CC04FEA430805FA24
:100B500008F62CEA060CCDF8148002968E6806FA88
:100B600008F646EA0C06C6604E68022E01D0122E28
:100B700015D1DE0800EB86060396366A4FEA437C01
:100B80004FEADC6807FA08FC26EA0C06D1F810C028
:100B90000CFA08FC4CEA060C039EC6F820C0066856
:100BA000DDF808C026EA0C0691F804C000E081E0F8
:100BB000DDF814800CF0030C0CFA08FC4CEA060C6F
:100BC000C0F800C04E68F60074D5404ED6F860C03C
:100BD0004CF0010CC6F860C0366E23F0030C06F032
:100BE000010600963A4E66440296D6F808C09E0763
:100BF0004FEA167807FA08F62CEA060CB0F1904F87
:100C000004D0344EB04203D101261BE0002619E087
:100C1000314EB04201D1022614E0304EB04201D133
:100C200003260FE02E4EB04201D104260AE02D4EDD
:100C3000B04201D1052605E02B4EB04201D1062677
:100C400000E0072606FA08F646EA0C06DDF808C0BA
:100C5000CCF80860D9F80060CC46D1F804809643FF
:100C60005FEAC83800D51643CCF80060DAF80060B7
:100C7000D446D1F8048096435FEA883800D51643FD
:100C8000CCF80060DBF80060DC46D1F804809643C5
:100C90005FEAC82800D51643CCF80060DEF8006093
:100CA000F446D1F8048096435FEA882800D51643BD
:100CB000CCF800605B1C0A6832FA03F67FF4F6AEEB
:100CC00007B000F013B8000000040140001002401B
:100CD000000001400004004800080048000C0048E3
:100CE00000100048001400480018004830BCBDE85F
:100CF000C08F426921EA02030A4043EA024181614E
:100D000070470AB18161704781627047014880680D
:100D100070470000040000200248816802781144F6
:100D20008160704704000020094810B50168002464
:100D300041F480710160032000F072F8002000F09F
:100D400009F808B1012401E000F026F8204610BDA2
:100D50000020024070B50E4E05460024307898B150
:100D60004FF47A71B1FBF0F00A490968B1FBF0F079
:100D700000F026FE40B9102D06D200222946501E52
:100D800000F02EF8756000E00124204670BD0000E0
:100D90000400002010000020094808B5016E41F051
:100DA00001010166016E01F001010091816D41F0C8
:100DB00080518165806D00F08050009008BD00007A
:100DC00000100240002809DB00F01F0201219140C1
:100DD0004009800000F1E020C0F8001170470000D9
:100DE000F0B40E4B1B680C46C3F30223C3F1070596
:100DF000042D00D90425191D072901D2002300E084
:100E0000DB1E012606FA05F1491E214099409E404D
:100E1000761E16403143F0BC01F02BBB0CED00E018
:100E2000064900F0070208684FF6FF03184040EA41
:100E30000220034A10430860704700000CED00E0F8
:100E40000000FA051649B0F5007F0868C0F341209C
:100E500009D0022805D0086820F4C06040F4806002
:100E60000860002070470128FBD0086820F4C060AB
:100E700040F4007008600B483222006850430A4A70
:100E8000B0FBF2F0401C00E0401E4A69520501D55B
:100E90000028F9D148694005E3D5032070470000D8
:100EA000007000401000002040420F00024800681F
:100EB00000F4C06070470000007000400248016804
:100EC00041F4807101607047007000400248016881
:100ED00041F0040101607047001002402DE9F84F15
:100EE000044600270088E54D3E46010504F1200B2D
:100EF0001DD5606E78B1B0F5800F11D0B0F5000F40
:100F000004D0B0F5400F22D001270FE0E86840F48C
:100F10008030E8601BE00021201D00F0D5FE03E0DA
:100F20000021584600F066FF070010D03E4620889A
:100F3000C00426D5A06EC0B1B0F1807F1AD0B0F148
:100F4000007F0DD0B0F1407F19D0012718E0D5F80F
:100F50008800616E20F440000843C5F88800E6E789
:100F6000E86840F48030E86009E00021201D00F0CE
:100F7000ABFE03E00021584600F03CFF0746F7B106
:100F80003E46206880033AD5A86D4FF00008C000A7
:100F900009D4A86D40F08050A865A86D4FF00108F5
:100FA00000F080500090DFF8D8A2DAF8001041F489
:100FB0008071CAF80010FFF7A9FE814610E0D5F84D
:100FC0008800A16E20F040700843C5F88800D8E77B
:100FD000FFF79CFEA0EB0900022801D9032705E0DA
:100FE000DAF80000C005F3D5002F7CD04FEA0706E1
:100FF000B8F1000F03D0A86D20F08050A8652078CC
:10100000C00707D0D5F88800A16B20F00300084383
:10101000C5F888002078800707D5D5F88800E16BEF
:1010200020F00C000843C5F888002078400707D559
:10103000D5F88800216C20F030000843C5F88800FE
:101040002078000707D5D5F88800616C20F0C00033
:101050000843C5F888002078C00607D5D5F8880071
:10106000A16C20F440700843C5F888002078800601
:1010700007D5D5F88800E16C20F440600843C5F836
:1010800088002088800507D5D5F88800E16D20F418
:1010900040200843C5F888002088400507D5D5F8CA
:1010A0008800216E20F440100843C5F8880020789D
:1010B000400607D5D5F88800216D20F4405008433C
:1010C000C5F888002078000607D5D5F88800616D3E
:1010D00020F440400843C5F888002088C00509D5A1
:1010E000D5F8880000E01CE0A16D20F440300843F2
:1010F000C5F8880020884FF0006780044FF08068B2
:101100004FD5D5F88800E16E20F040600843C5F85F
:101110008800E06EB8423CD1E86840F48010E86096
:101120003FE0D5F8900010F4407015D0D4F884104A
:10113000814211D0D5F89000D5F8901020F440707D
:1011400041F48031C5F89010D5F8901021F4803129
:10115000C5F89010C5F89000C00710D0FFF7D6FD75
:10116000074641F2883906E0FFF7D0FDC11B49452B
:1011700001D903263CE7D5F890008007F4D5D5F8CF
:101180009000D4F8841020F440700843C5F8900013
:101190002EE7404505D10121201D00F095FD00B14D
:1011A00006462068000317D5D5F88800216F20F087
:1011B00040600843C5F88800206FB84204D1E86851
:1011C00040F48010E86007E0404505D10121201D72
:1011D00000F07AFD00B106462068400317D5D5F827
:1011E0008800616F20F040600843C5F88800606F98
:1011F000B84204D1E86840F48010E86007E0404558
:1012000005D10121201D00F05FFD00B106462088B8
:1012100040041AD5D5F88800A16F20F0405008434B
:10122000C5F88800A06FB0F1805F03D0B0F1005F17
:1012300005D00AE00221201D00F046FD03E0022156
:10124000584600F0D7FD00B106462088000407D5B7
:10125000D5F88800E16F20F080400843C5F8880089
:101260002068C00307D555F8880FD4F8801020F007
:10127000004008432860304600F004B800100240E7
:101280000070004018BCBDE8E08F00002DE9F04779
:101290000F46050058D0404E306800F00700B842B5
:1012A00009D2306820F0070038433060306800F021
:1012B0000700B84248D12878384CC0072CD068685D
:1012C000032811D0022812D0216898B149050029BD
:1012D0003ADAA16821F003010143A160FFF716FD8E
:1012E000804641F2883910E021688901EFE72168E2
:1012F0008903ECE78907EAE7FFF708FDA0EB08019F
:10130000494502D90320BDE8F087A068696800F06C
:101310000C00B0EB810FEFD12878800705D5A068CD
:10132000A96820F0F0000843A060306800F00700D2
:10133000B8420BD9306820F007003843306030687D
:1013400000F00700B84201D00120DCE72878400710
:1013500005D5A068E96820F4E0600843A06028781B
:10136000000706D5A068296920F4605040EAC10052
:10137000A06000F03FF8A168094AC1F30311515C75
:1013800001F01F01C8400749086007480068BDE830
:10139000F047FFF7DFBC00000020024000100240D1
:1013A000F02400081000002008000020054806492D
:1013B00000688968054AC1F30221515C01F01F01F0
:1013C000C84070471000002000100240302500087F
:1013D0000548064900688968054AC1F3C221515C85
:1013E00001F01F01C84070471000002000100240AB
:1013F0003025000870B52549002318468A68CC6856
:1014000012F00C0204F00306214C4FEA640509D0E7
:101410000C2A05D0042A32D0082A00D1284670BDF3
:10142000012E10D10B681B0704D4D1F89430C3F3FC
:10143000032302E00B68C3F30313164E56F8233060
:10144000DAB10C2AEBD1C86800F00300022818D0EA
:10145000032818D01846CA68CB68C2F30212C3F337
:1014600006234343521CB3FBF2F2C868C0F3416049
:10147000401C4000B2FBF0F070BD184670BD204625
:1014800070BD2046E7E72846E5E70000001002406F
:101490000024F400002500082DE9F84304006FD073
:1014A000FE4DA86800F00C06E86800F003072078FD
:1014B000C00664D576B10C2E01D1012F0AD0A069E7
:1014C000002828687AD040F001002860FFF71EFC51
:1014D00080465DE02868800702D5A0690028DED03C
:1014E000216A2868000703D5286800F0F00004E0AE
:1014F000D5F89400F02202EA1010814216D908466D
:1015000000F0FCFC00283BD1286840F0080028606F
:101510002868216A20F0F000084328606868E169C3
:1015200020F47F4040EA0120686016E0286840F01F
:10153000080028602868216A20F0F000084328602D
:101540006868E16920F47F4040EA0120686026B9BC
:10155000206A00F0D3FC0028D5D1FFF74BFFA96823
:10156000CF4AC1F30311515C01F01F01C840CD49BE
:101570000860CD480068FFF7EDFB00287ED12EE023
:10158000CAE000BFFFF7C2FBA0EB0800022876D834
:1015900028688007F6D5286840F008002860286889
:1015A000216A20F0F000084328606868E16920F4AF
:1015B0007F4040EA0120686011E0FFE720F0010071
:1015C0002860FFF7A3FB804606E000BFFFF79EFB05
:1015D000A0EB08000228DAD828688007F6D4207823
:1015E000C00740D0082E18D00C2E01D1032F14D0E4
:1015F0006068B0F5803F17D0B0F5A02F286817D0ED
:1016000020F480302860286820F4802028606068FA
:10161000E0B1FFF77BFB804614E02868800322D509
:101620006068002878D01EE0286840F48030EDE73C
:1016300040F480202860F7E7FFF768FBA0EB080084
:101640006428A4D828688003F6D50CE0FFF75EFB79
:10165000804605E0FFF75AFBA0EB0800642896D807
:1016600028688003F6D4207880073BD5042E11D05B
:101670000C2E01D1022F0DD0E06801E092E1F1E0E3
:10168000002828681ED040F480702860FFF73EFBD9
:1016900007460CE0286840050CD5E0680028C1D05A
:1016A00008E000BFFFF732FBC01B022893D8286870
:1016B0004005F7D56868217C20F0F85040EA0160C9
:1016C00068600FE020F480702860FFF71FFB07467A
:1016D00005E000BFFFF71AFBC01B0228B1D828683D
:1016E0004005F7D42078000729D560690028D5F88F
:1016F000940012D040F00100C5F89400FFF706FBFB
:10170000074604E0FFF702FBC01B022899D8D5F872
:1017100094008007F6D512E000E120F00100C5F842
:101720009400FFF7F3FA074605E000BFFFF7EEFA73
:10173000C01B022885D8D5F894008007F6D42078FD
:10174000400766D5A86D0027C00008D4A86D40F0FA
:101750008050A865A86D012700F080500090534884
:101760000168C90512D40168814641F480710160A5
:10177000FFF7CCFA804605E0FFF7C8FAA0EB0800B7
:1017800002286FD8D9F80000C005F5D5A068012857
:1017900016D00528D5F8900017D020F00100C5F824
:1017A0009000D5F8900020F0040000BFC5F890002C
:1017B000A06841F28839C0B1FFF7A8FA80460FE06F
:1017C000D5F8900040F00100F0E740F00400C5F8C3
:1017D0009000F5E7FFF79AFAA0EB0801494541D8D8
:1017E000D5F890008007F5D50EE0FFF78FFA804618
:1017F00006E000BFFFF78AFAA0EB0801494531D89F
:10180000D5F890008007F5D41FB1A86D20F0805066
:10181000A865A06A38B302280AD00C2E7ED02868AA
:1018200020F080702860286810F0205F77D0AAE050
:10183000E868E26A00F0030191422BD1216B00F0CD
:10184000700209011039914224D1626B00F4FE410B
:10185000B1EB022F1ED1A26B00F40031072A03D096
:10186000012202E09DE089E00022914212D1A18F85
:1018700000F4C00249084905A1F50011914209D1BF
:1018800094F8401000F0C06049084906A1F10071C9
:1018900081425CD00C2E41D0286809E00010024043
:1018A000F024000810000020080000200070004014
:1018B00040017ED42868C0007BD4286820F0807066
:1018C0002860FFF723FA064605E000BFFFF71EFA7F
:1018D000801B022865D828688001F7D4D4E90B0161
:1018E0006FF00F0202EB01110843A18F5204490867
:1018F00002EB4151626B41EA0221084394F8401027
:101900004FF07E42490802EB41610843A16B09098F
:1019100040EA4140E968284A114001E049E02EE0F0
:101920000843E860286840F080702860E86840F06C
:101930008070E860FFF7EAF9044604E0FFF7E6F993
:10194000001B02282DD828688001F7D52FE02868D1
:1019500080012CD4286840F080702860E86840F04E
:101960008070E860FFF7D2F9044604E0FFF7CEF993
:10197000001B022815D828688001F7D517E0E86811
:1019800020F00300E860E8680C490840E860FFF7D1
:10199000BDF9044608E000BFFFF7B8F9001B0228B4
:1019A00002D90320BDE8F88328688001F4D4002020
:1019B000F8E70120F6E700008C809DF9FFFFEEFEBE
:1019C00010B5401EB0F1807F01D3012010BD4FF053
:1019D000E02460610F21601700F04BFD0020A06142
:1019E00007202061002010BD10B5040002D0606FF8
:1019F00010B107E0012010BD002084F870002046DF
:101A000000F026F8242060672068016821F00101B9
:101A10000160204600F0B4FB0128ECD0606A10B1F0
:101A2000204600F01DFB2068416821F49041416090
:101A30002068816821F02A0181602068016841F0F6
:101A4000010101602046BDE8104000F06DBB0000C0
:101A500010B586B0044614216846FEF7ECFB134926
:101A6000206888421FD11248816D41F400318165A0
:101A7000816D01F400310591C16C41F00101C16437
:101A8000C06C694600F0010005900C200090022017
:101A900001900020029003200390072004904FF053
:101AA0009040FEF7F3FF06B010BD00000044004078
:101AB00000100240FEE700EB8100006E00F0F840ED
:101AC00070478068C0F3C00070478068C0F3800032
:101AD00070478068C0F380007047042303EAD15345
:101AE00010B518444369C1F3045107248C40A34343
:101AF0008A401343436110BD00EB8100016E21F069
:101B0000004111430166704730B589B00024069446
:101B10000794182168460894FEF78DFB174816496C
:101B20000425C0E900141021C0E90214C0E90445ED
:101B3000047644760121C16180F820408462C46249
:101B400080F83040446380F83840FEF743FE06A931
:101B50000A480694FEF7C6FB094800900620CDE926
:101B600001047F200594CDE9030569460348FEF78B
:101B700031FC09B030BD000000000450140000200A
:101B80002000F0142DE9F04387B014216846FEF7D9
:101B900052FB3C48C16C41F00401C164C16C01F0CE
:101BA00004010591C16C41F08001C164C16C01F078
:101BB00080010591C16C41F00101C164C16C01F06B
:101BC00001010591C16C41F00201C164C06C4FF488
:101BD000487700F002004FF0904805900022394607
:101BE0004046FFF78EF8DFF8A0904FF480660022A1
:101BF00031464846FFF785F8244DF000CDE9000551
:101C00000024694602942248FEF740FF009701270E
:101C1000CDE90174694640460394FEF737FF00960C
:101C2000CDE90174694648460394FEF72FFF0096FC
:101C3000CDE9015469464046FEF728FF7020CDE902
:101C40000005694602944846FEF720FF0022022163
:101C50000A20FFF7C5F80A20FFF7B4F80022022196
:101C60001720FFF7BDF81720FFF7ACF8002202217C
:101C70002820FFF7B5F82820FFF7A4F807B0BDE843
:101C8000F083000000100240000400480000211012
:101C9000000800480948084901604FF4E1314160FB
:101CA000002181600C22C160C0E904128161C16120
:101CB00001624162FFF798BE0044004078000020B6
:101CC000FEE77047704700002DE9F041444C05469F
:101CD0008846E0680026810728680DD0E16801F099
:101CE0000301814216D1A8B1E0686968C0F302100F
:101CF000401C88420ED120E0012804D0022805D0E3
:101D0000032807D108E02168890701E02168490517
:101D1000002907DB01265FE02168890302D42168DE
:101D20004903F5E7E1686A686FF00F0321F073017A
:101D300003EB021211430143E160206820F0806050
:101D40002060FEF7E3FF074605E000BFFEF7DEFF79
:101D5000C01B022837D820680001F7D4B8F1000F63
:101D600018D0B8F1010F1ED0287D4FF07E414008F9
:101D700001EB4060A96840EA01202169194A11403D
:101D800008432061206840F080602060FEF7BEFFBD
:101D900007461AE0A868E9680002090940EA4140DC
:101DA0002169114AEBE7288A1049400801EB4050AD
:101DB000A96840EA012021690D4AE0E7FEF7A6FF85
:101DC000C01B022801D9032606E020680001F5D5D2
:101DD0002069A969084320613046BDE8F081000010
:101DE00000100240FF80FFF9FF80FDFF0000E0FFD0
:101DF000FF809FFF2DE9F0413D4C06468846E06894
:101E00000025810730680DD0E16801F003018142AF
:101E100016D1A8B1E0687168C0F30210401C884276
:101E20000ED120E0012804D0022805D0032807D1D4
:101E300008E02168890701E021684905002907DBDE
:101E4000012551E02168890302D421684903F5E79F
:101E5000E16872686FF00F0321F0730103EB021267
:101E600011430143E160206820F080502060FEF7BC
:101E70004DFF074605E000BFFEF748FFC01B0228E4
:101E800029D820688000F7D4B8F1000F15D0307C35
:101E90004FF07E41400801EB4060B16840EA01200C
:101EA0006169144A114008436061206840F0805025
:101EB0002060FEF72BFF07460FE0B068F1680002D4
:101EC000090940EA414061690B4AEBE7FEF71EFF52
:101ED000C01B022801D9032506E020688000F5D543
:101EE00060697169084360612846BDE8F0810000BF
:101EF00000100240FF80FFF9FF80FDFFF8B51C4D88
:101F000006460024A86DC00002D5FEF7CFFF0DE005
:101F1000A86D40F08050A865A86D00F0805000903A
:101F2000FEF7C4FFA96D21F08051A965B0F5007FCF
:101F300004D0802E07D94FF003040AE0802E08D980
:101F4000A02E01D804E001D1022402E0702E00D1BD
:101F500001240848016821F007012143016000685D
:101F600000F00700A04201D00120F8BD0020F8BD1C
:101F700000100240002002407047FEF7CDBE000076
:101F800030B5B9B0442122A8FEF755F9142133A881
:101F9000FEF751F988216846FEF74DF9FEF78EFFEE
:101FA0001D4850F8901F21F01801016016200125EE
:101FB00022902802CDE92450102026900024289554
:101FC000B020CDE9294022A82C94FFF765FA0F2014
:101FD000CDE9330435943694022133A83794FFF7C2
:101FE00055F944F202000F940090C00608211E909B
:101FF000CDE9025102200721CDE90410019006909D
:10200000C00507906846FEF769FF6802FEF71AFFF1
:10201000FEF75CFF39B030BD001002400D4801688A
:1020200041F4700101600C48016841F00101016058
:10203000002181600268094B1A4002608214C2606C
:10204000026822F48022026081610249C003803963
:102050000860704788ED00E000100240FFFFF6EADC
:1020600090F82410C90706D001684A68836A22F4F0
:1020700000321A434A6090F82410890706D5016897
:102080004A68C36A22F480321A434A6090F82410E6
:10209000490706D501684A68036B22F480221A4377
:1020A0004A6090F82410090706D501684A68436B16
:1020B00022F400421A434A6090F82410C90606D55B
:1020C00001688A68836B22F480521A438A6090F810
:1020D0002410890606D501688A68C36B22F4005271
:1020E0001A438A6090F82410490611D501684A689D
:1020F000036C22F480121A434A60016CB1F5801F10
:1021000006D101684A68436C22F4C0021A434A604F
:1021100090F82410090606D501684A68806C22F4FC
:10212000002202434A607047F8B500260446C6679D
:10213000FEF7ECFD0546206800686FF07E4700075B
:1021400008D52B4600224FF400112046009700F0DE
:102150003DF960B92068006840070AD52B46002287
:102160004FF480012046009700F030F908B10320B9
:10217000F8BD20206067A06784F870600020F8BD7B
:102180002DE9F0410446016880682269E369104343
:10219000626900251A431043824F0A68824B1A4035
:1021A00002430A6020684168E26821F4405111430B
:1021B00041602168A069B94201D0226A10438A684F
:1021C00022F4306202438A607849226878488A4261
:1021D0000DD1D0F8880010F0030006D0012866D099
:1021E000022854D0032851D163E001204FE0714907
:1021F0008A420BD1D0F8880010F00C0047D0042898
:1022000045D0082851D00C2840D152E06A498A4272
:102210000BD1D0F8880010F0300038D0102846D00C
:10222000202842D0302831D143E064498A420BD182
:10223000D0F8880010F0C00029D0402837D080287E
:1022400033D0C02822D134E05D498A420ED1D0F883
:10225000880010F440701AD0B0F5807F27D0B0F518
:10226000007F22D0B0F5407F10D122E0BA420DD1DC
:10227000D0F8880010F4406009D0B0F5806F16D017
:10228000B0F5006F11D0B0F5406F12D010204D4B5B
:1022900000264FF40041BA422ED160B1022813D07B
:1022A00004280BD0082874D10DE00220EFE70420A9
:1022B000EDE70820EBE7FFF779F801E0FFF79AF880
:1022C000030001D169E00B46626802EB42009842CC
:1022D0005FD8B3EB023F5CD8190E180273084FEABF
:1022E0003207C01959410023FDF76AFF364AA0F5AD
:1022F000407191424FD94CE0E2694FF6EF778A4244
:1023000028D1092845D2DFE800F0050811440D4422
:1023100044441000FFF74AF801E0FFF759F80300C2
:1023200004D13AE0FFF766F8F9E70B466068590018
:1023300001EB5001B1FBF0F080B2A0F11001B94205
:1023400027D84FF6F0710140C0F3420001432068E6
:10235000C16022E009281CD2DFE800F00508111B4B
:102360000D1B1B1B1000FFF721F801E0FFF730F8F1
:10237000030004D111E0FFF73DF8F9E70B46606870
:1023800003EB5001B1FBF0F080B2A0F11001B942B3
:1023900001D9012501E02168C860266628466666E5
:1023A000BDE8F08100800040F369FFEF0038014094
:1023B000001002400044004000480040004C004033
:1023C000005000400024F400FFFC0F002DE9F0470E
:1023D0009A4617460E4604464FF000094FF0200873
:1023E000089D39E0681C37D0FEF790FCA0EB0A008E
:1023F000A84222D80DB32068016849072CD5C069CE
:10240000C043000528D421684FF4006008622068AA
:10241000016821F4D07101602068816821F0010118
:102420008160C4F87480C4F87880C4F87C8000BFF0
:1024300084F870900320BDE8F0872068016821F4DB
:10244000D07101602068816821F001018160C4F8C9
:102450007480C4F87880EBE72068C06936EA000031
:1024600004D00020B842BDD00020E4E70120F9E705
:10247000FEE70907090E002804DB00F1E02080F8E0
:102480000014704700F00F0000F1E02080F8141DE8
:10249000704702E008C8121F08C1002AFAD170472D
:1024A0007047002001E001C1121F002AFBD17047D4
:1024B000FEF73AFCFFF764FDFFF764FBFFF724FB30
:1024C000FFF7E8FB094D4FF090444FF400762021D0
:1024D0002046FEF70EFCA87818B131462046FEF7DC
:1024E00008FCFA20FEF788FAF1E70000000000205F
:1024F00000000000000000000102030406070809B4
:10250000A0860100400D0300801A060000350C0073
:1025100040420F0080841E0000093D0000127A0036
:102520000024F40000366E010048E801006CDC0273
:1025300000000000010203045825000800000020EC
:1025400014000000922400086C25000814000020EC
:10255000E4040000A22400080000000001000000C4
:0C256000100000000000000000093D0019
:040000050800018965
:00000001FF
