:020000040800F2
:10000000000500209D010008DF210008BD1F000839
:10001000DD210008250300088D29000800000000EC
:10002000000000000000000000000000952400080F
:100030002703000800000000E121000897240008C1
:10004000B7010008B7010008B7010008B7010008B0
:10005000B7010008B7010008B7010008B7010008A0
:10006000B7010008B70100083F030008B701000806
:10007000B7010008B7010008B7010008B701000880
:10008000B7010008B7010008B1020008B701000875
:10009000B7010008B7010008B701000845030008D0
:1000A000B7010008B7010008B7010008B701000850
:1000B000B7010008B7010008B7010008B701000840
:1000C000B7010008B7010008B7010008B701000830
:1000D000B7010008B7010008B7010008B701000820
:1000E00029030008B7010008B7010008B70100089C
:1000F000B7010008B7010008B7010008B701000800
:10010000B7010008B7010008B7010008B7010008EF
:10011000B7010008B7010008B7010008B7010008DF
:10012000B7010008B7010008B7010008B7010008CF
:10013000B7010008B7010008B7010008B7010008BF
:10014000B7010008B7010008B7010008B7010008AF
:10015000B7010008B7010008B7010008B70100089F
:10016000B7010008B7010008B7010008B70100088F
:10017000B7010008B7010008B7010008000000003F
:10018000B7010008B7010008DFF80CD000F07EF8D6
:1001900000480047CD290008000500200648804798
:1001A00006480047FEE7FEE7FEE7FEE7FEE7FEE75C
:1001B000FEE7FEE7FEE7FEE73925000889010008B3
:1001C0002DE9F05F0546002092469B46884606468C
:1001D000814640241BE0284641464746224600F01F
:1001E00044F853465A46C01A914110D31146184656
:1001F000224600F02BF82D1A67EB01084F462246E5
:100200000120002100F022F817EB00094E41201ECA
:10021000A4F10104DFDC484631462A46434600F09B
:1002200000B830BCBDE8C09FD2B201E000F8012B9D
:10023000491EFBD270470022F6E710B513460A4666
:1002400004461946FFF7F0FF204610BD202A04DBC4
:10025000203A00FA02F1002070479140C2F12003D9
:1002600020FA03F3194390407047202A04DB203A18
:1002700021FA02F00021704721FA02F3D040C2F1C6
:10028000200291400843194670470000064C074D74
:1002900006E0E06840F0010394E807009847103456
:1002A000AC42F6D3FFF774FF902A0008B02A00088A
:1002B000014800F0F7BA00001800002070B50446AD
:1002C0000068816811F0010F28D18168144A114239
:1002D00015D18168D5432940491C816000F09AFFFF
:1002E000064616E0816811F0010F03D181682940AC
:1002F000491C816000F08EFF801B022809D9606DC7
:1003000040F010006065A06D40F00100A065012084
:1003100070BD20680168C943C907E3D1002070BDE2
:100320003F000080FEE7704710B54FF4806000F09A
:1003300025FEBDE810404FF4005000F01FBE102015
:1003400000F01CBE10B5202000F018FEBDE81040E3
:10035000402000F013BE70477047704770477047E9
:100360002DE9F047044690F850009AB00D464FF042
:100370000008012813D0012084F85000304E206876
:100380004FF00009B0420ED12E4F0097384601F0D1
:1003900024FE8246206801F020FE60B10EE00220BB
:1003A0001AB0BDE8F087616D41F02001616584F805
:1003B00050900120F4E7BAF1000F09D0606D40F0D1
:1003C000200060654FF0010884F850904046E7E750
:1003D0001D4829681D4A0029816840F61F7321F4D1
:1003E00060411BD094F830C041EA4C31D5F804C0CC
:1003F00041EA0C018160B168BE6801F0010106F0BC
:1004000001069268314302F001021143DCD1AA686F
:100410002968114382689A4311430EE08160B168F4
:10042000BD6801F0010105F001059268294302F061
:1004300001021143C8D1816899438160C4E700007B
:100440000000045000010450000304500002045056
:100450002DE9F84F00270446009790F85000DFF888
:10046000B8930D46B846012811D0012684F8506093
:10047000206801F0AEFD60B1606D40F02000606565
:100480005FF0010784F85080384600F0DDB90220A3
:10049000FBE768680C23052812D8022807D0032838
:1004A00007D0042807D0052807D0062007E06B6096
:1004B00006E0122003E0182001E04FF4807068602D
:1004C000D5E90021206803EA91131844036B01F079
:1004D0001F014FF01F0C0CFA01FCC2F3846223EAE7
:1004E0000C038A4013430363206801F072FD8246C7
:1004F000206801F06AFD5AEA00001DD1AA68296847
:10050000206801F076FD20686969C268C2F3C10203
:10051000520091402A69042A0FD000EB82002B6818
:10052000026EDFF8F8C203F0F84302EA0C020B4354
:100530001A4342F00041016672E0002101F03FFDE4
:10054000400320684FF0000172D001F038FD90FAAE
:10055000A0F0B0FA80F1286842036ED090FAA0F0C3
:10056000B0FA80F0814204D100221146206801F0E7
:100570004FFD0121206801F022FD400320684FF06B
:1005800001015DD001F01BFD90FAA0F0B0FA80F1FE
:100590002868420359D090FAA0F0B0FA80F0814266
:1005A00004D100220121206801F032FD02212068DF
:1005B00001F005FD400320684FF0020148D001F032
:1005C000FEFC90FAA0F0B0FA80F12868420344D013
:1005D00090FAA0F0B0FA80F0814204D1002202210A
:1005E000206801F015FD0321206801F0E8FC4003BC
:1005F00020684FF0030133D001F0E1FC90FAA0F045
:10060000B0FA80F1286842032FD090FAA0F0B0FA37
:1006100080F0814204D100220321206801F0F8FC1F
:100620002068816811F0010F22D0ACE000E004E006
:1006300001F0C5FCC0F384618DE7C0F3846091E7ED
:1006400001F0BDFCC0F38461A2E7C0F38460A6E7BB
:1006500001F0B5FCC0F38461B7E7C0F38460BBE789
:1006600001F0ADFCC0F38461CCE7C0F38460D0E757
:100670002A7B296850F8B03FC1F3120C23EA0C031F
:1006800002F0180C664A22FA0CF20A401343036087
:10069000E968494577D1286841031CD090FAA0F158
:1006A000B1FA81F1491C01F01F0109294FEA4031DB
:1006B00032D8002912D000BF90FAA0F1B1FA81F12E
:1006C00001F1010101F01F0106FA01F609D100BF95
:1006D000C0F3846109E0C0F38461E3E7C0F384619F
:1006E000EEE790FAA0F1B1FA81F101F1010101F018
:1006F0001F0146EA816102D1C0F3846003E090FAF1
:10070000A0F0B0FA80F000F1010000F01F0000EB53
:10071000400041EA005132E000290ED090FAA0F1E9
:10072000B1FA81F101F1010101F01F0106FA01F6B0
:1007300006D100BFC0F3846106E0C0F38461F1E735
:1007400090FAA0F1B1FA81F101F1010101F01F016C
:1007500046EA816102D1C0F3846003E090FAA0F020
:10076000B0FA80F000F1010000F01F002D4A00EB0C
:10077000400002EB005041EA000141F00071AA681C
:10078000206801F036FC28482A6802423FF47AAE1D
:1007900026488168264E274B274D01F0E071B24272
:1007A0001CD10E021AD422689A4202D0AA427FF4C7
:1007B00069AE826841F4000122F0E0720A4382606F
:1007C0001E481F490068B0FBF1F000EB40008000BC
:1007D00000E0401E00900028FBD153E6194EB242C3
:1007E00009D1CE0107D422689A4201D0AA42F4D19D
:1007F00041F080710AE06FF00045EA42EDD14A0213
:10080000EBD422689A42E8D141F48001826822F058
:10081000E0720A43826035E600007F4000F0FF038B
:10082000FFFF0700000020FE0000088000030450C6
:10083000000052C7000004500002045014000020C1
:10084000400D0300000084CB18BCBDE8E08F000021
:1008500010B5104800F023F80F4CA08061784FF0DD
:100860009040012908D1A1881E2905D200224021EB
:1008700000F0CBFC02200AE06178032908D1A188AE
:10088000DC2905D90022802100F0BFFC0020607027
:1008900010BD000018000020000000207047006814
:1008A000006C70472DE9F05F0446006806684568F3
:1008B000DFF854B2DBF8080000F01F07B0070ED5D0
:1008C000A8070CD5606DC00603D4606D40F40060CD
:1008D00060652046FFF73FFD216802200860DFF8D1
:1008E0002CA2DFF82C82700701D5680703D43007EB
:1008F00037D5280735D5606DC00603D4606D40F448
:1009000000706065206801F06CFB20B320685045E2
:1009100001D1424600E00246824208D03FB1052F95
:1009200005D0092F03D0504503D1414602E0C168EC
:1009300001E00146C96889040DD4016809070AD598
:1009400001F047FB58B3606D40F010006065A06D8A
:1009500040F00100A0652046FFF77AFF21680C20D7
:100960000860B00601D5A80603D4700658D56806FD
:1009700056D5606DC00603D4606D40F400506065CC
:100980002068C16C11F0C00F1AD00021894601F017
:1009900028FB02462068504514D1434613E02068E6
:1009A000416821F00C014160606D20F48070606549
:1009B000606DC004CFD4606D40F001006065CAE78F
:1009C0000121E3E70346834208D03FB1062F05D05B
:1009D000072F03D0504503D1414602E0C16801E032
:1009E0000146C968B9F1000F04D18B0112D48AB154
:1009F0008A040FD4026852060CD589020AD401F089
:100A0000E4FAE8B3606D40F010006065A06D40F05E
:100A10000100A0652046FFF79FFC21686020086068
:100A200030060BD5280609D5606D40F4803060652E
:100A3000204600F05BF9216880200860F0050CD5A5
:100A4000E8050AD5606D40F4003060652046FFF788
:100A500085FC21684FF480700860B0050CD5A805AE
:100A60000AD5606D40F4802060652046FFF777FC72
:100A700021684FF400700860F0062ED5E80600E00B
:100A800008E02AD5606BD0B1AFB1DBF8080000F404
:100A9000604013E02068416821F060014160606DB2
:100AA00020F480506065606DC005B3D4606D40F087
:100AB00001006065AEE72068C068C00750B1606D96
:100AC00040F480606065A06D40F00200A0652046A3
:100AD000FFF7E4FE216810200860700512D5680554
:100AE00010D5606D40F480406065A06D40F0080056
:100AF000A06521684FF480600860204600F00AB8C5
:100B0000FFF72BBC00F00BB80003045000010450A9
:100B10000000045030BCBDE8C05FFFF7F1BF30BC3F
:100B2000BDE8C09FF8B54FF0000504002E460095C3
:100B300002D0606D10B107E00120F8BD204600F042
:100B4000D7F8A66584F8506020688168C1F34071C9
:100B500019B181685B4A1140816020688168C1F3E6
:100B6000007179B98168584A114041F08051816023
:100B7000564857490068B0FBF1F000E0401E009075
:100B80000028FBD120688168C1F3007141B9616D13
:100B900041F010016165A16D41F00101A1650125E0
:100BA00001F017FA616DC90600D430B1606D40F0F4
:100BB0001000606501252846F8BD606D20F4807046
:100BC00040F0020060652068806810F0010F15D1C8
:100BD00040488068404900F00100896801F0010147
:100BE00008433E49896801F00101084306D13C49A8
:100BF00060688A6822F47C1202438A60E168606B54
:100C0000627E0843A16841EA4231084394F820100B
:100C100040EA0140012904D1A18C324A02EB414152
:100C20000843A16A29B101F47071E26A014342EA02
:100C300001002268D1682C4B19400143D160206823
:100C400001F0C7F90646206801F0BFF9304315D11D
:100C5000207E94F830102268800340EA4101D06879
:100C600044F2020398430843D06094F83800012806
:100C70000CD02068016921F001010161206901287F
:100C80002068016B21F00F0111D013E0D4E90F01AE
:100C90000843D4E911121143084321680A6940F25C
:100CA000FC739A43104340F001000861E6E7E269F3
:100CB000521E11430163606D20F0020040F00100FC
:100CC000606578E7C0FFFF5FC0FFFF7F1400002072
:100CD000400D0300000004500001045000020450C5
:100CE000000304500000FEFF07C0F0FF7047000043
:100CF00010B586B0044614216846FFF79CFA1549E2
:100D00002068884223D11448C16C41F40051C16469
:100D1000C16C01F400510591C16C41F00101C16445
:100D2000C06C694600F001000590012000900B2086
:100D30000190002002904FF0904000F02BF900222B
:100D40001146122000F0D0FA122000F0BFFA06B0CF
:100D500010BD000000000450001002402DE9F041D9
:100D600004465848806800F01F05206801F031F9FA
:100D700018B102221046BDE8F08194F85000012815
:100D80000CD0012084F850002046FFF797FA0200AB
:100D90004FF0000304D084F85030EBE70220EAE77C
:100DA000606D40F60161884340F48070606546499B
:100DB0002068464E884201D1374600E00746874208
:100DC00000D01DB9676D27F480176765676DFF0454
:100DD00004D5A76D27F00607A76500E0A3651C27CB
:100DE000076084F850302068436823F01C03436098
:100DF000606908282068436802D043F0040301E0DA
:100E000043F008034360606B20B92068436843F0F7
:100E1000100343602068884201D1334600E0034656
:100E200083420CD05DB1052D09D0092D07D0636D2B
:100E300043F480136365884225D1314624E0C168BC
:100E4000890119D5616D21F4005141F4805161652A
:100E500061690829416807D021F04001416020689C
:100E6000416841F0200106E021F020014160206846
:100E7000416841F04001416020688168144B19408D
:100E8000091D816076E70146C968890185D5616DD4
:100E900021F4005141F4805161656169082941687C
:100EA00007D021F0400141602068416841F02001F5
:100EB00006E021F0200141602068416841F04001D6
:100EC000416057E700030450000104500000045043
:100ED000C0FFFF7F70B5044600F09CF90546601C1A
:100EE00002D004480078044400F094F9401BA0426A
:100EF000FAD370BD0800002070B505461D4A4FF0BA
:100F00009040102D23D001231902202D16D0402D02
:100F100017D08C00A5422BD11178012929D153700B
:100F200000228021054600F070F901224021284668
:100F300000F06BF9012221460F4815E013700122E1
:100F400012E05378002B14D113701A460CE051783C
:100F500000290ED00321517000224021044600F0E8
:100F600054F9012280212046BDE8704000F04DB9BF
:100F7000937070BD0000002000040048044910B5C3
:100F80000A68024202D00860FFF7B6FF10BD0000F9
:100F9000140401402DE9F04FDFF83492002309F1E9
:100FA000040A012403250AF1040B87B00F270BF173
:100FB000040E04E104FA03F632407CD0D1F804C0F8
:100FC000BCF1010F08D0BCF1020F05D0BCF1110F2C
:100FD00002D0BCF1120F29D1D0F808C0CDF800C062
:100FE0004FEA430C05FA0CF8CDF80CC0DDF800C050
:100FF0002CEA080CCDF800C0D1F80C80DDF80CC04C
:1010000008FA0CF8DDF800C048EA0C08C0F80880BF
:10101000D0F8048091F804C028EA0608CCF3001C3C
:101020000CFA03FC4CEA080CC0F804C0D1F80480A8
:101030006FEA080C5FEA8C7C09D1D0F82CC02CEA4E
:10104000060CC8F3C0069E4046EA0C06C662D0F8FD
:101050000CC04FEA430805FA08F62CEA060CCDF856
:10106000148002968E6806FA08F646EA0C06C660F8
:101070004E68022E01D0122E15D1DE0800EB860636
:101080000396366A4FEA437C4FEADC6807FA08FCAD
:1010900026EA0C06D1F810C00CFA08FC4CEA060C43
:1010A000039EC6F820C00668DDF808C026EA0C06D4
:1010B00091F804C000E081E0DDF814800CF0030C2E
:1010C0000CFA08FC4CEA060CC0F800C04E68F600AA
:1010D00074D5404ED6F860C04CF0010CC6F860C024
:1010E000366E23F0030C06F0010600963A4E664475
:1010F0000296D6F808C09E074FEA167807FA08F657
:101100002CEA060CB0F1904F04D0344EB04203D11B
:1011100001261BE0002619E0314EB04201D1022623
:1011200014E0304EB04201D103260FE02E4EB04203
:1011300001D104260AE02D4EB04201D1052605E07A
:101140002B4EB04201D1062600E0072606FA08F62B
:1011500046EA0C06DDF808C0CCF80860D9F8006053
:10116000CC46D1F8048096435FEAC83800D51643D0
:10117000CCF80060DAF80060D446D1F804809643D9
:101180005FEA883800D51643CCF80060DBF80060D1
:10119000DC46D1F8048096435FEAC82800D51643A0
:1011A000CCF80060DEF80060F446D1F80480964385
:1011B0005FEA882800D51643CCF800605B1C0A68FB
:1011C00032FA03F67FF4F6AE07B000F013B8000071
:1011D00000040140001002400000014000040048EB
:1011E00000080048000C00480010004800140048A7
:1011F0000018004830BCBDE8C08F426921EA0203F4
:101200000A4043EA0241816170470AB18161704737
:101210008162704701488068704700000800002024
:1012200002488168027811448160704708000020FC
:10123000094810B50168002441F480710160032061
:1012400000F072F8002000F009F808B1012401E074
:1012500000F026F8204610BD0020024070B50E4E6A
:1012600005460024307898B14FF47A71B1FBF0F064
:101270000A490968B1FBF0F000F026FE40B9102DD4
:1012800006D200222946501E00F02EF8756000E0BC
:101290000124204670BD000008000020140000203A
:1012A000094808B5016E41F001010166016E01F0C7
:1012B00001010091816D41F080518165806D00F0E8
:1012C0008050009008BD000000100240002809DB9B
:1012D00000F01F02012191404009800000F1E02050
:1012E000C0F8001170470000F0B40E4B1B680C46AC
:1012F000C3F30223C3F10705042D00D90425191DEA
:10130000072901D2002300E0DB1E012606FA05F1C1
:10131000491E214099409E40761E16403143F0BC44
:1013200001F035BB0CED00E0064900F0070208684B
:101330004FF6FF03184040EA0220034A10430860BA
:10134000704700000CED00E00000FA051649B0F50A
:10135000007F0868C0F3412009D0022805D0086842
:1013600020F4C06040F480600860002070470128CD
:10137000FBD0086820F4C06040F4007008600B489F
:101380003222006850430A4AB0FBF2F0401C00E0F1
:10139000401E4A69520501D50028F9D14869400527
:1013A000E3D50320704700000070004014000020C7
:1013B00040420F000248006800F4C060704700001F
:1013C000007000400248016841F48071016070477C
:1013D000007000400248016841F00401016070475C
:1013E000001002402DE9F84F044600270088E54D23
:1013F0003E46010504F1200B1DD5606E78B1B0F5B5
:10140000800F11D0B0F5000F04D0B0F5400F22D0FE
:1014100001270FE0E86840F48030E8601BE000211D
:10142000201D00F0DFFE03E00021584600F070FFB1
:10143000070010D03E462088C00426D5A06EC0B15B
:10144000B0F1807F1AD0B0F1007F0DD0B0F1407FB5
:1014500019D0012718E0D5F88800616E20F440000B
:101460000843C5F88800E6E7E86840F48030E860A3
:1014700009E00021201D00F0B5FE03E000215846E0
:1014800000F046FF0746F7B13E46206880033AD594
:10149000A86D4FF00008C00009D4A86D40F080503E
:1014A000A865A86D4FF0010800F080500090DFF8AB
:1014B000D8A2DAF8001041F48071CAF80010FFF7E2
:1014C000A9FE814610E0D5F88800A16E20F040709A
:1014D0000843C5F88800D8E7FFF79CFEA0EB090099
:1014E000022801D9032705E0DAF80000C005F3D58A
:1014F000002F7CD04FEA0706B8F1000F03D0A86D8B
:1015000020F08050A8652078C00707D0D5F8880063
:10151000A16B20F003000843C5F8880020788007FD
:1015200007D5D5F88800E16B20F00C000843C5F81A
:1015300088002078400707D5D5F88800216C20F076
:1015400030000843C5F888002078000707D5D5F893
:101550008800616C20F0C0000843C5F8880020783E
:10156000C00607D5D5F88800A16C20F44070084368
:10157000C5F888002078800607D5D5F88800E16C8A
:1015800020F440600843C5F888002088800507D50E
:10159000D5F88800E16D20F440200843C5F88800A4
:1015A0002088400507D5D5F88800216E20F440102A
:1015B0000843C5F888002078400607D5D5F888008C
:1015C000216D20F440500843C5F8880020780006BB
:1015D00007D5D5F88800616D20F440400843C5F870
:1015E00088002088C00509D5D5F8880000E01CE0F7
:1015F000A16D20F440300843C5F8880020884FF0E2
:10160000006780044FF080684FD5D5F88800E16E00
:1016100020F040600843C5F88800E06EB8423CD135
:10162000E86840F48010E8603FE0D5F8900010F4DE
:10163000407015D0D4F88410814211D0D5F89000B4
:10164000D5F8901020F4407041F48031C5F8901026
:10165000D5F8901021F48031C5F89010C5F89000AD
:10166000C00710D0FFF7D6FD074641F2883906E0E3
:10167000FFF7D0FDC11B494501D903263CE7D5F84A
:1016800090008007F4D5D5F89000D4F8841020F4A9
:1016900040700843C5F890002EE7404505D1012170
:1016A000201D00F09FFD00B106462068000317D5FD
:1016B000D5F88800216F20F040600843C5F8880005
:1016C000206FB84204D1E86840F48010E86007E079
:1016D000404505D10121201D00F084FD00B10646E2
:1016E0002068400317D5D5F88800616F20F040606E
:1016F0000843C5F88800606FB84204D1E86840F438
:101700008010E86007E0404505D10121201D00F070
:1017100069FD00B10646208840041AD5D5F8880036
:10172000A16F20F040500843C5F88800A06FB0F1C9
:10173000805F03D0B0F1005F05D00AE00221201DD8
:1017400000F050FD03E00221584600F0E1FD00B139
:1017500006462088000407D5D5F88800E16F20F000
:1017600080400843C5F888002068C00307D555F8B5
:10177000880FD4F8801020F00040084328603046DD
:1017800000F004B8001002400070004018BCBDE832
:10179000E08F00002DE9F0470F46050058D0404E7D
:1017A000306800F00700B84209D2306820F0070026
:1017B00038433060306800F00700B84248D12878DC
:1017C000384CC0072CD06868032811D0022812D0EA
:1017D000216898B1490500293ADAA16821F003018E
:1017E0000143A160FFF716FD804641F2883910E001
:1017F00021688901EFE721688903ECE78907EAE7B7
:10180000FFF708FDA0EB0801494502D90320BDE818
:10181000F087A068696800F00C00B0EB810FEFD191
:101820002878800705D5A068A96820F0F000084353
:10183000A060306800F00700B8420BD9306820F093
:10184000070038433060306800F00700B84201D02C
:101850000120DCE72878400705D5A068E96820F476
:10186000E0600843A0602878000706D5A0682969D1
:1018700020F4605040EAC100A06000F03FF8A16889
:10188000094AC1F30311515C01F01F01C840074927
:10189000086007480068BDE8F047FFF7DFBC0000BC
:1018A0000020024000100240482A000814000020D6
:1018B0000C0000200548064900688968054AC1F304
:1018C0000221515C01F01F01C84070471400002044
:1018D00000100240882A0008054806490068896807
:1018E000054AC1F3C221515C01F01F01C840704795
:1018F0001400002000100240882A000870B5254915
:10190000002318468A68CC6812F00C0204F0030623
:10191000214C4FEA640509D00C2A05D0042A32D0A4
:10192000082A00D1284670BD012E10D10B681B0774
:1019300004D4D1F89430C3F3032302E00B68C3F35B
:101940000313164E56F82330DAB10C2AEBD1C868CF
:1019500000F00300022818D0032818D01846CA68DF
:10196000CB68C2F30212C3F306234343521CB3FBFA
:10197000F2F2C868C0F34160401C4000B2FBF0F0D6
:1019800070BD184670BD204670BD2046E7E728466A
:10199000E5E70000001002400024F400582A000887
:1019A0002DE9F84304006FD0FE4DA86800F00C0646
:1019B000E86800F003072078C00664D576B10C2EE5
:1019C00001D1012F0AD0A069002828687AD040F000
:1019D00001002860FFF71EFC80465DE02868800754
:1019E00002D5A0690028DED0216A2868000703D547
:1019F000286800F0F00004E0D5F89400F02202EA34
:101A00001010814216D9084600F006FD00283BD18F
:101A1000286840F0080028602868216A20F0F0005B
:101A2000084328606868E16920F47F4040EA0120AB
:101A3000686016E0286840F0080028602868216A7D
:101A400020F0F000084328606868E16920F47F40D6
:101A500040EA0120686026B9206A00F0DDFC002819
:101A6000D5D1FFF74BFFA968CF4AC1F30311515CF1
:101A700001F01F01C840CD490860CD480068FFF75C
:101A8000EDFB00287ED12EE0CAE000BFFFF7C2FBCD
:101A9000A0EB0800022876D828688007F6D52868C9
:101AA00040F0080028602868216A20F0F000084310
:101AB00028606868E16920F47F4040EA012068609E
:101AC00011E0FFE720F001002860FFF7A3FB80464C
:101AD00006E000BFFFF79EFBA0EB08000228DAD863
:101AE00028688007F6D42078C00740D0082E18D088
:101AF0000C2E01D1032F14D06068B0F5803F17D0B1
:101B0000B0F5A02F286817D020F48030286028680E
:101B100020F4802028606068E0B1FFF77BFB8046FE
:101B200014E02868800322D56068002878D01EE081
:101B3000286840F48030EDE740F480202860F7E723
:101B4000FFF768FBA0EB08006428A4D8286880038E
:101B5000F6D50CE0FFF75EFB804605E0FFF75AFB89
:101B6000A0EB0800642896D828688003F6D4207873
:101B700080073BD5042E11D00C2E01D1022F0DD0A1
:101B8000E06801E092E1F1E0002828681ED040F40E
:101B900080702860FFF73EFB07460CE02868400590
:101BA0000CD5E0680028C1D008E000BFFFF732FB89
:101BB000C01B022893D828684005F7D56868217CA7
:101BC00020F0F85040EA016068600FE020F4807077
:101BD0002860FFF71FFB074605E000BFFFF71AFB71
:101BE000C01B0228B1D828684005F7D42078000728
:101BF00029D560690028D5F8940012D040F0010082
:101C0000C5F89400FFF706FB074604E0FFF702FB68
:101C1000C01B022899D8D5F894008007F6D512E0A9
:101C200000E120F00100C5F89400FFF7F3FA074641
:101C300005E000BFFFF7EEFAC01B022885D8D5F8F3
:101C400094008007F6D42078400766D5A86D002759
:101C5000C00008D4A86D40F08050A865A86D012789
:101C600000F08050009053480168C90512D4016803
:101C7000814641F480710160FFF7CCFA804605E0AF
:101C8000FFF7C8FAA0EB080002286FD8D9F80000C7
:101C9000C005F5D5A068012816D00528D5F8900014
:101CA00017D020F00100C5F89000D5F8900020F082
:101CB000040000BFC5F89000A06841F28839C0B1A7
:101CC000FFF7A8FA80460FE0D5F8900040F0010039
:101CD000F0E740F00400C5F89000F5E7FFF79AFA46
:101CE000A0EB0801494541D8D5F890008007F5D50B
:101CF0000EE0FFF78FFA804606E000BFFFF78AFA92
:101D0000A0EB0801494531D8D5F890008007F5D4FB
:101D10001FB1A86D20F08050A865A06A38B30228D2
:101D20000AD00C2E7ED0286820F0807028602868A9
:101D300010F0205F77D0AAE0E868E26A00F00301C3
:101D400091422BD1216B00F07002090110399142B0
:101D500024D1626B00F4FE41B1EB022F1ED1A26BC5
:101D600000F40031072A03D0012202E09DE089E05F
:101D70000022914212D1A18F00F4C0024908490506
:101D8000A1F50011914209D194F8401000F0C06013
:101D900049084906A1F1007181425CD00C2E41D066
:101DA000286809E000100240482A000814000020BA
:101DB0000C0000200070004040017ED42868C00064
:101DC0007BD4286820F080702860FFF723FA06464D
:101DD00005E000BFFFF71EFA801B022865D82868BF
:101DE0008001F7D4D4E90B016FF00F0202EB01116F
:101DF0000843A18F5204490802EB4151626B41EA4A
:101E00000221084394F840104FF07E42490802EB4B
:101E100041610843A16B090940EA4140E968284A49
:101E2000114001E049E02EE00843E860286840F0F6
:101E300080702860E86840F08070E860FFF7EAF999
:101E4000044604E0FFF7E6F9001B02282DD82868B5
:101E50008001F7D52FE0286880012CD4286840F055
:101E600080702860E86840F08070E860FFF7D2F981
:101E7000044604E0FFF7CEF9001B022815D82868B5
:101E80008001F7D517E0E86820F00300E860E86813
:101E90000C490840E860FFF7BDF9044608E000BFC0
:101EA000FFF7B8F9001B022802D90320BDE8F88328
:101EB00028688001F4D40020F8E70120F6E700004C
:101EC0008C809DF9FFFFEEFE10B5401EB0F1807FC3
:101ED00001D3012010BD4FF0E02460610F21601795
:101EE00000F055FD0020A06107202061002010BDFA
:101EF00010B5040002D0606F10B107E0012010BDE2
:101F0000002084F87000204600F026F82420606746
:101F10002068016821F001010160204600F0BEFB4D
:101F20000128ECD0606A10B1204600F027FB206841
:101F3000416821F4904141602068816821F02A01C4
:101F400081602068016841F0010101602046BDE820
:101F5000104000F077BB000010B586B00446142195
:101F60006846FEF768F91349206888421FD1124875
:101F7000816D41F400318165816D01F4003105917D
:101F8000C16C41F00101C164C06C694600F0010000
:101F900005900C2000900220019000200290032068
:101FA0000390072004904FF09040FEF7F3FF06B037
:101FB00010BD00000044004000100240FEE700EBAE
:101FC0008100006E00F0F84070478068C0F3C000E8
:101FD00070478068C0F3800070478068C0F380005D
:101FE0007047C06810F4406F01D000207047012096
:101FF0007047042303EAD15310B518444369C1F371
:10200000045107248C40A3438A401343436110BD0D
:1020100000EB8100016E21F0004111430166704721
:1020200030B589B0002406940794182168460894B6
:10203000FEF701F918481749042501604FF4E01133
:1020400041601021C0E90214C0E904450476012171
:102050004176C16180F820408462C46280F83040DB
:10206000446380F83840FEF75DFD06A90A480694EF
:10207000FEF776F9094800900620019002200290B0
:102080007F200594CDE9030569460348FEF7E0F992
:1020900009B030BD00000450180000202000F014EA
:1020A0002DE9F04387B014216846FEF7C4F83C4898
:1020B000C16C41F00401C164C16C01F004010591DF
:1020C000C16C41F08001C164C16C01F080010591D7
:1020D000C16C41F00101C164C16C01F001010591C5
:1020E000C16C41F00201C164C06C4FF4787700F01C
:1020F00002004FF090480590002239464046FFF715
:1021000084F8DFF8A0904FF48066002231464846FC
:10211000FFF77BF8244DF000CDE900050024694667
:1021200002942248FEF736FF00970127CDE901749B
:10213000694640460394FEF72DFF0096CDE90174F1
:10214000694648460394FEF725FF0096CDE9015401
:1021500069464046FEF71EFF7020CDE9000569463E
:1021600002944846FEF716FF002202210A20FFF7DC
:10217000BBF80A20FFF7AAF8002202211720FFF778
:10218000B3F81720FFF7A2F8002202212820FFF75A
:10219000ABF82820FFF79AF807B0BDE8F0830000FD
:1021A0000010024000040048000021100008004810
:1021B0000948084901604FF4E13141600021816024
:1021C0000C22C160C0E904128161C16101624162F7
:1021D000FFF78EBE004400407C000020FEE7704701
:1021E000704700002DE9F041444C05468846E06800
:1021F0000026810728680DD0E16801F003018142C3
:1022000016D1A8B1E0686968C0F30210401C88428A
:102210000ED120E0012804D0022805D0032807D1E0
:1022200008E02168890701E021684905002907DBEA
:1022300001265FE02168890302D421684903F5E79C
:10224000E1686A686FF00F0321F0730103EB02127B
:1022500011430143E160206820F080602060FEF7B8
:10226000D9FF074605E000BFFEF7D4FFC01B0228D8
:1022700037D820680001F7D4B8F1000F18D0B8F1B2
:10228000010F1ED0287D4FF07E41400801EB4060D9
:10229000A96840EA01202169194A114008432061D8
:1022A000206840F080602060FEF7B4FF07461AE027
:1022B000A868E9680002090940EA41402169114A19
:1022C000EBE7288A1049400801EB4050A96840EA32
:1022D000012021690D4AE0E7FEF79CFFC01B0228A0
:1022E00001D9032606E020680001F5D52069A96917
:1022F000084320613046BDE8F08100000010024034
:10230000FF80FFF9FF80FDFF0000E0FFFF809FFFDF
:102310002DE9F0413D4C06468846E06800258107DE
:1023200030680DD0E16801F00301814216D1A8B1F7
:10233000E0687168C0F30210401C88420ED120E0B2
:10234000012804D0022805D0032807D108E021681D
:10235000890701E021684905002907DB012551E0D3
:102360002168890302D421684903F5E7E1687268AE
:102370006FF00F0321F0730103EB021211430143CD
:10238000E160206820F080502060FEF743FF0746A0
:1023900005E000BFFEF73EFFC01B022829D82068D9
:1023A0008000F7D4B8F1000F15D0307C4FF07E419B
:1023B000400801EB4060B16840EA01206169144ABD
:1023C000114008436061206840F080502060FEF7B3
:1023D00021FF07460FE0B068F1680002090940EAF2
:1023E000414061690B4AEBE7FEF714FFC01B02286E
:1023F00001D9032506E020688000F5D56069716980
:10240000084360612846BDE8F081000000100240EA
:10241000FF80FFF9FF80FDFFF8B51C4D0646002444
:10242000A86DC00002D5FEF7C5FF0DE0A86D40F015
:102430008050A865A86D00F080500090FEF7BAFFAC
:10244000A96D21F08051A965B0F5007F04D0802EE0
:1024500007D94FF003040AE0802E08D9A02E01D836
:1024600004E001D1022402E0702E00D101240848CA
:10247000016821F0070121430160006800F00700B6
:10248000A04201D00120F8BD0020F8BD001002409C
:10249000002002407047FEF7C3BE000030B5B9B05F
:1024A000442122A8FDF7C7FE142133A8FDF7C3FE7F
:1024B00088216846FDF7BFFEFEF784FF1D4850F8EF
:1024C000901F21F01801016016200125229028029A
:1024D000CDE924501020269000242895B020CDE985
:1024E000294022A82C94FFF75BFA0F20CDE9330492
:1024F00035943694022133A83794FFF74BF944F210
:1025000002000F940090C00608211E90CDE90251F0
:1025100002200721CDE9041001900690C005079024
:102520006846FEF75FFF6802FEF710FFFEF752FFF6
:1025300039B030BD001002400D48016841F470010F
:1025400001600C48016841F00101016000218160D7
:102550000268094B1A4002608214C260026822F4C9
:102560008022026081610249C0038039086070479F
:1025700088ED00E000100240FFFFF6EA90F824101A
:10258000C90706D001684A68836A22F400321A43F8
:102590004A6090F82410890706D501684A68C36A22
:1025A00022F480321A434A6090F82410490706D575
:1025B00001684A68036B22F480221A434A6090F84B
:1025C0002410090706D501684A68436B22F40042CB
:1025D0001A434A6090F82410C90606D501688A6833
:1025E000836B22F480521A438A6090F82410890683
:1025F00006D501688A68C36B22F400521A438A60C8
:1026000090F82410490611D501684A68036C22F439
:1026100080121A434A60016CB1F5801F06D101682F
:102620004A68436C22F4C0021A434A6090F82410AE
:10263000090606D501684A68806C22F4002202432C
:102640004A607047F8B500260446C667FEF7E2FD0B
:102650000546206800686FF07E47000708D52B46C6
:1026600000224FF400112046009700F03DF960B9B8
:102670002068006840070AD52B4600224FF48001ED
:102680002046009700F030F908B10320F8BD202063
:102690006067A06784F870600020F8BD2DE9F04104
:1026A0000446016880682269E36910436269002575
:1026B0001A431043824F0A68824B1A4002430A6051
:1026C00020684168E26821F440511143416021686B
:1026D000A069B94201D0226A10438A6822F43062AC
:1026E00002438A607849226878488A420DD1D0F83E
:1026F000880010F0030006D0012866D0022854D0CC
:10270000032851D163E001204FE071498A420BD187
:10271000D0F8880010F00C0047D0042845D00828D5
:1027200051D00C2840D152E06A498A420BD1D0F8EE
:10273000880010F0300038D0102846D0202842D031
:10274000302831D143E064498A420BD1D0F8880067
:1027500010F0C00029D0402837D0802833D0C028BE
:1027600022D134E05D498A420ED1D0F8880010F4BD
:1027700040701AD0B0F5807F27D0B0F5007F22D00E
:10278000B0F5407F10D122E0BA420DD1D0F88800D8
:1027900010F4406009D0B0F5806F16D0B0F5006F2E
:1027A00011D0B0F5406F12D010204D4B00264FF4E1
:1027B0000041BA422ED160B1022813D004280BD0B8
:1027C000082874D10DE00220EFE70420EDE708208F
:1027D000EBE7FFF76FF801E0FFF790F8030001D196
:1027E00069E00B46626802EB420098425FD8B3EBA7
:1027F000023F5CD8190E180273084FEA3207C0195D
:1028000059410023FDF7DCFC364AA0F540719142A6
:102810004FD94CE0E2694FF6EF778A4228D1092878
:1028200045D2DFE800F0050811440D44444410008F
:10283000FFF740F801E0FFF74FF8030004D13AE05A
:10284000FFF75CF8F9E70B466068590001EB5001AF
:10285000B1FBF0F080B2A0F11001B94227D84FF6D9
:10286000F0710140C0F3420001432068C16022E0E2
:1028700009281CD2DFE800F00508111B0D1B1B1BEB
:102880001000FFF717F801E0FFF726F8030004D166
:1028900011E0FFF733F8F9E70B46606803EB5001EE
:1028A000B1FBF0F080B2A0F11001B94201D90125CD
:1028B00001E02168C860266628466666BDE8F081AA
:1028C00000800040F369FFEF003801400010024033
:1028D0000044004000480040004C004000500040D0
:1028E0000024F400FFFC0F002DE9F0479A4617463C
:1028F0000E4604464FF000094FF02008089D39E0CD
:10290000681C37D0FEF786FCA0EB0A00A84222D84C
:102910000DB32068016849072CD5C069C043000584
:1029200028D421684FF4006008622068016821F40F
:10293000D07101602068816821F001018160C4F8D4
:102940007480C4F87880C4F87C8000BF84F87090EC
:102950000320BDE8F0872068016821F4D071016090
:102960002068816821F001018160C4F87480C4F896
:102970007880EBE72068C06936EA000004D00020C8
:10298000B842BDD00020E4E70120F9E7FEE70907DF
:10299000090E002804DB00F1E02080F800147047E5
:1029A00000F00F0000F1E02080F8141D704702E0F5
:1029B00008C8121F08C1002AFAD1704770470020CA
:1029C00001E001C1121F002AFBD17047FEF730FC65
:1029D000FFF764FDFFF764FBFFF722FBFFF7E8FB5F
:1029E0001648FEF7BBF9164F164C4FF480664FF0B1
:1029F00090454FF4007820212846FEF7FEFB6078D2
:102A000050B1012803D0022808D003280BD1314649
:102A10003846FEF7F2FB06E0002200E001223146D4
:102A20003846FEF7F2FBA07818B141462846FEF77B
:102A3000E4FBFA20FEF74EFADDE700001800002064
:102A4000000400480000002000000000000000001A
:102A50000102030406070809A0860100400D0300D7
:102A6000801A060000350C0040420F0080841E00D2
:102A700000093D0000127A000024F40000366E01C7
:102A80000048E801006CDC020000000001020304C1
:102A9000B02A00080000002018000000AE2900083D
:102AA000C82A000818000020E8040000BE29000819
:102AB0000000000000000000010000001000000005
:082AC0000000000000093D00C8
:040000050800018965
:00000001FF
