:020000040800F2
:10000000A80500209D0100082F320008172D0008C8
:100010002D320008DD050008793B000800000000D3
:10002000000000000000000000000000E5340008AF
:10003000DF0500080000000031320008E734000846
:10004000B7010008B7010008B7010008B7010008B0
:10005000B7010008B7010008B7010008B7010008A0
:10006000B7010008B7010008F7050008B70100084C
:10007000B7010008B7010008B7010008B701000880
:10008000B7010008B701000869050008B7010008BA
:10009000B7010008B7010008B7010008FD05000816
:1000A000B7010008B7010008B7010008B701000850
:1000B000B7010008D1350008B7010008B7010008F2
:1000C000B7010008B7010008B7010008B701000830
:1000D000B7010008B7010008B7010008B701000820
:1000E000E1050008B7010008B7010008B7010008E2
:1000F000B7010008B7010008B7010008B701000800
:10010000B7010008B7010008B7010008B7010008EF
:10011000B7010008B7010008B7010008B7010008DF
:10012000B7010008B7010008B7010008B7010008CF
:10013000B7010008B7010008B7010008B7010008BF
:10014000B7010008B7010008B7010008B7010008AF
:10015000B7010008B7010008B7010008B70100089F
:10016000B7010008B7010008B7010008B70100088F
:10017000B7010008B7010008B7010008000000003F
:10018000B7010008B7010008DFF80CD000F0DAF979
:1001900000480047493D0008A80500200648804760
:1001A00006480047FEE7FEE7FEE7FEE7FEE7FEE75C
:1001B000FEE7FEE7FEE7FEE78D350008890100084F
:1001C0002DE9F05F0546002092469B46884606468C
:1001D000814640241BE0284641464746224600F01F
:1001E0000CF953465A46C01A914110D3114618468D
:1001F000224600F0F3F82D1A67EB01084F4622461D
:100200000120002100F0EAF817EB00094E41201E02
:10021000A4F10104DFDC484631462A46434600F09B
:1002200000B830BCBDE8C09FD2B201E000F8012B9D
:10023000491EFBD270470022F6E710B513460A4666
:1002400004461946FFF7F0FF204610BD421C10F887
:10025000011B0029FBD1801A7047034611F8012BBE
:1002600000F8012B002AF9D1184670472DE9FE4FFE
:1002700081EA030404F0004421F0004100944FF0AF
:10028000000B23F0004350EA01045ED052EA03045D
:100290005BD0C3F30A54C1F30A552C44A4F2F334DF
:1002A0000194A0FB0254C1F3130141F48011C3F384
:1002B000130343F4801301FB024400FB034E840A42
:1002C000970A44EA815447EA8357A4FB07680295DA
:1002D0008D0A05FB07854FEA932C04FB0C54270578
:1002E000029D4FEA065847EA1637B5EB08056EEB54
:1002F000070C870E920E47EA811742EA8312A7FB8A
:100300000201B6EB0B0164EB00042B0D43EA0C3346
:100310005E1844EB1C50DA465146E7FB0201C5F378
:1003200013044FEA0B3343EA14534FEA0432019C9F
:1003300043EA0603A4F10C040294009CCDE900B446
:1003400000F0B1F803B000F003B800200146F9E76F
:1003500030BCBDE8C08F0EB5C10F80EAE070084424
:10036000CA07002140F233438DE80E000A460B46CF
:1003700000F099F803B000BD01F0004330B421F063
:10038000004150EA010206D00A0DA2F56072C1F3E5
:100390001301002A02DC30BC00207047440F44EAFD
:1003A000C104C100E01830BC00EBC25000F035B809
:1003B00030B50B46014600202022012409E021FA35
:1003C00002F59D4205D303FA02F5491B04FA02F532
:1003D0002844151EA2F10102F1DC30BD202A04DB05
:1003E000203A00FA02F1002070479140C2F1200348
:1003F00020FA03F3194390407047202A04DB203A87
:1004000021FA02F00021704721FA02F3D040C2F134
:10041000200291400843194670470029A8BF704741
:10042000401C490008BF20F00100704710B4B0FA2A
:1004300080FC00FA0CF050EA010404BF10BC7047C5
:1004400049B1CCF1200421FA04F411FA0CF118BFDF
:10045000012121430843A3EB0C01CB1D4FEA0061AE
:100460004FEA102042BF002010BC704700EBC35081
:1004700010440029A4BF10BC7047401C490008BFAD
:1004800020F0010010BC704710B5141E73F1000479
:1004900008DA401C41F1000192185B411A4301D176
:1004A00020F0010010BD2DE9F04D92469B4611B1A0
:1004B000B1FA81F202E0B0FA80F220329046FFF702
:1004C0008DFF04460F4640EA0A0041EA0B015346FD
:1004D0005A46084313D0114653EA010019D0C8F117
:1004E00040025046FFF789FF05460E4650465946E2
:1004F0004246FFF773FF084305D0012004E0204681
:100500003946BDE8F08D0020054346EAE0762C43ED
:1005100037430A986305E40AA0EB08000022FD0AAD
:1005200044EA47540A3002D500200146E9E70105B4
:1005300010196941DDE9084500196941BDE8F04D30
:10054000A2E70000064C074D06E0E06840F001031A
:1005500094E8070098471034AC42F6D3FFF718FE32
:10056000703F0008903F0008014800F0F7BA000013
:100570002800002070B504460068816811F0010F62
:1005800028D18168144A114215D18168D543294088
:10059000491C816000F09AFF064616E0816811F060
:1005A000010F03D181682940491C816000F08EFF52
:1005B000801B022809D9606D40F010006065A06DB5
:1005C00040F00100A065012070BD20680168C943AA
:1005D000C907E3D1002070BD3F000080FEE77047EF
:1005E00010B54FF4806000F025FEBDE810404FF4D8
:1005F000005000F01FBE102000F01CBE10B52020DF
:1006000000F018FEBDE81040402000F013BE704717
:1006100070477047704770472DE9F047044690F8DF
:1006200050009AB00D464FF00008012813D0012069
:1006300084F85000304E20684FF00009B0420ED1CF
:100640002E4F0097384602F09BFC8246206802F04D
:1006500097FC60B10EE002201AB0BDE8F087616D32
:1006600041F02001616584F850900120F4E7BAF16F
:10067000000F09D0606D40F0200060654FF0010868
:1006800084F850904046E7E71D4829681D4A002934
:10069000816840F61F7321F460411BD094F830C08C
:1006A00041EA4C31D5F804C041EA0C018160B168DF
:1006B000BE6801F0010106F001069268314302F0C4
:1006C00001021143DCD1AA682968114382689A4368
:1006D00011430EE08160B168BD6801F0010105F0D1
:1006E00001059268294302F001021143C8D18168D3
:1006F00099438160C4E700000000045000010450E9
:1007000000030450000204502DE9F84F002704466E
:10071000009790F85000DFF8B8930D46B8460128CE
:1007200011D0012684F85060206802F025FC60B1E9
:10073000606D40F0200060655FF0010784F8508034
:10074000384600F0DDB90220FBE768680C23052875
:1007500012D8022807D0032807D0042807D005287C
:1007600007D0062007E06B6006E0122003E01820A7
:1007700001E04FF480706860D5E90021206803EA49
:1007800091131844036B01F01F014FF01F0C0CFA7A
:1007900001FCC2F3846223EA0C038A40134303631F
:1007A000206802F0E9FB8246206802F0E1FB5AEA89
:1007B00000001DD1AA682968206802F0EDFB2068BE
:1007C0006969C268C2F3C102520091402A69042AD1
:1007D0000FD000EB82002B68026EDFF8F8C203F046
:1007E000F84302EA0C020B431A4342F0004101664F
:1007F00072E0002102F0B6FB400320684FF00001D8
:1008000072D002F0AFFB90FAA0F0B0FA80F1286845
:1008100042036ED090FAA0F0B0FA80F0814204D189
:1008200000221146206802F0C6FB0121206802F078
:1008300099FB400320684FF001015DD002F092FB6C
:1008400090FAA0F0B0FA80F12868420359D090FAEB
:10085000A0F0B0FA80F0814204D10022012120688A
:1008600002F0A9FB0221206802F07CFB4003206813
:100870004FF0020148D002F075FB90FAA0F0B0FAF8
:1008800080F12868420344D090FAA0F0B0FA80F0DA
:10089000814204D100220221206802F08CFB032156
:1008A000206802F05FFB400320684FF0030133D063
:1008B00002F058FB90FAA0F0B0FA80F128684203E9
:1008C0002FD090FAA0F0B0FA80F0814204D100223B
:1008D0000321206802F06FFB2068816811F0010F8E
:1008E00022D0ACE000E004E002F03CFBC0F3846105
:1008F0008DE7C0F3846091E702F034FBC0F38461BC
:10090000A2E7C0F38460A6E702F02CFBC0F3846189
:10091000B7E7C0F38460BBE702F024FBC0F3846157
:10092000CCE7C0F38460D0E72A7B296850F8B03F59
:10093000C1F3120C23EA0C0302F0180C664A22FAE7
:100940000CF20A4013430360E968494577D12868EF
:1009500041031CD090FAA0F1B1FA81F1491C01F0D9
:100960001F0109294FEA403132D8002912D000BFB7
:1009700090FAA0F1B1FA81F101F1010101F01F013A
:1009800006FA01F609D100BFC0F3846109E0C0F3A3
:100990008461E3E7C0F38461EEE790FAA0F1B1FA75
:1009A00081F101F1010101F01F0146EA816102D1EB
:1009B000C0F3846003E090FAA0F0B0FA80F000F198
:1009C000010000F01F0000EB400041EA005132E05E
:1009D00000290ED090FAA0F1B1FA81F101F10101E4
:1009E00001F01F0106FA01F606D100BFC0F38461D1
:1009F00006E0C0F38461F1E790FAA0F1B1FA81F169
:100A000001F1010101F01F0146EA816102D1C0F349
:100A1000846003E090FAA0F0B0FA80F000F10100E9
:100A200000F01F002D4A00EB400002EB005041EAAD
:100A3000000141F00071AA68206802F0ADFA284870
:100A40002A6802423FF47AAE26488168264E274B38
:100A5000274D01F0E071B2421CD10E021AD4226877
:100A60009A4202D0AA427FF469AE826841F4000142
:100A700022F0E0720A4382601E481F490068B0FB02
:100A8000F1F000EB4000800000E0401E00900028E4
:100A9000FBD153E6194EB24209D1CE0107D42268E8
:100AA0009A4201D0AA42F4D141F080710AE06FF07D
:100AB0000045EA42EDD14A02EBD422689A42E8D1DD
:100AC00041F48001826822F0E0720A43826035E6D8
:100AD00000007F4000F0FF03FFFF0700000020FE42
:100AE0000000088000030450000052C700000450BA
:100AF0000002045024000020400D0300000084CBBD
:100B000018BCBDE8E08F000010B5104800F023F8D5
:100B10000F4CA08061784FF09040012908D1A18846
:100B20001E2905D20022402100F0CBFC02200AE061
:100B30006178032908D1A188DC2905D90022802108
:100B400000F0BFFC0020607010BD000028000020F5
:100B50000000002070470068006C70472DE9F05FCE
:100B60000446006806684568DFF854B2DBF8080000
:100B700000F01F07B0070ED5A8070CD5606DC006A2
:100B800003D4606D40F4006060652046FFF73FFDD0
:100B9000216802200860DFF82CA2DFF82C827007A1
:100BA00001D5680703D4300737D5280735D5606DE0
:100BB000C00603D4606D40F400706065206802F0E8
:100BC000E3F920B32068504501D1424600E00246D7
:100BD000824208D03FB1052F05D0092F03D05045E0
:100BE00003D1414602E0C16801E00146C9688904B9
:100BF0000DD4016809070AD502F0BEF958B3606D3B
:100C000040F010006065A06D40F00100A065204636
:100C1000FFF77AFF21680C200860B00601D5A8060E
:100C200003D4700658D5680656D5606DC00603D447
:100C3000606D40F4005060652068C16C11F0C00F19
:100C40001AD00021894602F09FF9024620685045DB
:100C500014D1434613E02068416821F00C01416043
:100C6000606D20F480706065606DC004CFD4606DED
:100C700040F001006065CAE70121E3E703468342D3
:100C800008D03FB1062F05D0072F03D0504503D120
:100C9000414602E0C16801E00146C968B9F1000FB0
:100CA00004D18B0112D48AB18A040FD4026852068F
:100CB0000CD589020AD402F05BF9E8B3606D40F00C
:100CC00010006065A06D40F00100A0652046FFF7B0
:100CD0009FFC21686020086030060BD5280609D5E6
:100CE000606D40F480306065204600F05BF921685B
:100CF00080200860F0050CD5E8050AD5606D40F449
:100D0000003060652046FFF785FC21684FF4807055
:100D10000860B0050CD5A8050AD5606D40F48020A8
:100D200060652046FFF777FC21684FF4007008608B
:100D3000F0062ED5E80600E008E02AD5606BD0B1B9
:100D4000AFB1DBF8080000F4604013E020684168B0
:100D500021F060014160606D20F480506065606D3D
:100D6000C005B3D4606D40F001006065AEE7206857
:100D7000C068C00750B1606D40F480606065A06DD0
:100D800040F00200A0652046FFF7E4FE2168102035
:100D90000860700512D5680510D5606D40F480407C
:100DA0006065A06D40F00800A06521684FF4806088
:100DB0000860204600F00AB8FFF72BBC00F00BB823
:100DC00000030450000104500000045030BCBDE892
:100DD000C05FFFF7F1BF30BCBDE8C09FF8B54FF072
:100DE000000504002E46009502D0606D10B107E0AA
:100DF0000120F8BD204600F0D7F8A66584F85060C1
:100E000020688168C1F3407119B181685B4A114063
:100E1000816020688168C1F3007179B98168584A9E
:100E2000114041F080518160564857490068B0FB3D
:100E3000F1F000E0401E00900028FBD1206881689E
:100E4000C1F3007141B9616D41F010016165A16D9F
:100E500041F00101A165012502F08EF8616DC9061E
:100E600000D430B1606D40F0100060650125284667
:100E7000F8BD606D20F4807040F00200606520686D
:100E8000806810F0010F15D140488068404900F09B
:100E90000100896801F0010108433E49896801F0B9
:100EA0000101084306D13C4960688A6822F47C123B
:100EB00002438A60E168606B627E0843A16841EA90
:100EC0004231084394F8201040EA0140012904D13E
:100ED000A18C324A02EB41410843A16A29B101F4D5
:100EE0007071E26A014342EA01002268D1682C4B2A
:100EF00019400143D160206802F03EF806462068A0
:100F000002F036F8304315D1207E94F83010226874
:100F1000800340EA4101D06844F202039843084349
:100F2000D06094F8380001280CD02068016921F0C5
:100F300001010161206901282068016B21F00F0186
:100F400011D013E0D4E90F010843D4E91112114381
:100F5000084321680A6940F2FC739A43104340F049
:100F600001000861E6E7E269521E11430163606D0A
:100F700020F0020040F00100606578E7C0FFFF5FED
:100F8000C0FFFF7F24000020400D0300000004503C
:100F90000001045000020450000304500000FEFF52
:100FA00007C0F0FF7047000010B586B0044614215A
:100FB0006846FFF740F915492068884223D1144854
:100FC000C16C41F40051C164C16C01F40051059140
:100FD000C16C41F00101C164C06C694600F00100C0
:100FE0000590012000900B200190002002904FF00E
:100FF000904000F02BF900221146122000F0E0FC96
:10100000122000F0CFFC06B010BD0000000004501C
:10101000001002402DE9F04104465848806800F075
:101020001F05206801F0A8FF18B102221046BDE894
:10103000F08194F8500001280CD0012084F8500071
:101040002046FFF797FA02004FF0000304D084F81F
:101050005030EBE70220EAE7606D40F6016188431B
:1010600040F48070606546492068464E884201D150
:10107000374600E00746874200D01DB9676D27F468
:1010800080176765676DFF0404D5A76D27F0060715
:10109000A76500E0A3651C27076084F8503020682E
:1010A000436823F01C034360606908282068436894
:1010B00002D043F0040301E043F008034360606B97
:1010C00020B92068436843F01003436020688842D9
:1010D00001D1334600E0034683420CD05DB1052DBB
:1010E00009D0092D07D0636D43F4801363658842EE
:1010F00025D1314624E0C168890119D5616D21F4FB
:10110000005141F48051616561690829416807D047
:1011100021F0400141602068416841F0200106E073
:1011200021F0200141602068416841F040014160A8
:1011300020688168144B1940091D816076E70146DB
:10114000C968890185D5616D21F4005141F4805150
:10115000616561690829416807D021F0400141605B
:101160002068416841F0200106E021F02001416043
:101170002068416841F04001416057E70003045096
:101180000001045000000450C0FFFF7F70B504460A
:1011900000F09CF90546601C02D004480078044425
:1011A00000F094F9401BA042FAD370BD1800002053
:1011B00070B505461D4A4FF09040102D23D00123F5
:1011C0001902202D16D0402D17D08C00A5422BD10E
:1011D0001178012929D1537000228021054600F0A1
:1011E00070F901224021284600F06BF901222146C6
:1011F0000F4815E01370012212E05378002B14D130
:1012000013701A460CE0517800290ED0032151705A
:1012100000224021044600F054F90122802120469A
:10122000BDE8704000F04DB9937070BD0000002023
:1012300000040048044910B50A68024202D0086060
:10124000FFF7B6FF10BD0000140401402DE9F04F78
:10125000DFF83492002309F1040A012403250AF17E
:10126000040B87B00F270BF1040E04E104FA03F618
:1012700032407CD0D1F804C0BCF1010F08D0BCF1E1
:10128000020F05D0BCF1110F02D0BCF1120F29D111
:10129000D0F808C0CDF800C04FEA430C05FA0CF8AE
:1012A000CDF80CC0DDF800C02CEA080CCDF800C069
:1012B000D1F80C80DDF80CC008FA0CF8DDF800C09D
:1012C00048EA0C08C0F80880D0F8048091F804C0FF
:1012D00028EA0608CCF3001C0CFA03FC4CEA080CC4
:1012E000C0F804C0D1F804806FEA080C5FEA8C7C77
:1012F00009D1D0F82CC02CEA060CC8F3C0069E40D9
:1013000046EA0C06C662D0F80CC04FEA430805FA5C
:1013100008F62CEA060CCDF8148002968E6806FAC0
:1013200008F646EA0C06C6604E68022E01D0122E60
:1013300015D1DE0800EB86060396366A4FEA437C39
:101340004FEADC6807FA08FC26EA0C06D1F810C060
:101350000CFA08FC4CEA060C039EC6F820C006688E
:10136000DDF808C026EA0C0691F804C000E081E030
:10137000DDF814800CF0030C0CFA08FC4CEA060CA7
:10138000C0F800C04E68F60074D5404ED6F860C074
:101390004CF0010CC6F860C0366E23F0030C06F06A
:1013A000010600963A4E66440296D6F808C09E079B
:1013B0004FEA167807FA08F62CEA060CB0F1904FBF
:1013C00004D0344EB04203D101261BE0002619E0C0
:1013D000314EB04201D1022614E0304EB04201D16C
:1013E00003260FE02E4EB04201D104260AE02D4E16
:1013F000B04201D1052605E02B4EB04201D10626B0
:1014000000E0072606FA08F646EA0C06DDF808C0F2
:10141000CCF80860D9F80060CC46D1F80480964337
:101420005FEAC83800D51643CCF80060DAF80060EF
:10143000D446D1F8048096435FEA883800D5164335
:10144000CCF80060DBF80060DC46D1F804809643FD
:101450005FEAC82800D51643CCF80060DEF80060CB
:10146000F446D1F8048096435FEA882800D51643F5
:10147000CCF800605B1C0A6832FA03F67FF4F6AE23
:1014800007B000F013B80000000401400010024053
:10149000000001400004004800080048000C00481B
:1014A00000100048001400480018004830BCBDE897
:1014B000C08F426921EA02030A4043EA0241816186
:1014C00070470AB181617047816270470148806846
:1014D000704700001800002090F84120202A24D1F5
:1014E00090F84020012A20D0012280F840202422B8
:1014F00080F841200268136823F00103136002683A
:10150000136823F480531360026813680B4313605D
:1015100001680A6842F001020A60202180F8411047
:10152000002180F84010084670470220704790F86C
:101530004120202A22D190F84020012A1ED00122E9
:1015400080F84020242280F841200268136823F0AC
:10155000010313600268136823F4706343EA0121F6
:10156000116001680A6842F001020A60202180F8D7
:101570004110002180F84010084670470220704753
:1015800070B5040004D094F84100002510B106E0C5
:10159000012070BD84F84050204600F079F92420E5
:1015A00084F841002068016821F001010160606851
:1015B000216820F0706008612068816821F4004192
:1015C0008160E0680128A06807D040F404402168E9
:1015D0008860E068022803D006E040F40040F6E7A7
:1015E00021684FF40060486020684168114A114347
:1015F00041602068C16821F40041C160D4E9040160
:101600000843A16940EA01202168C860D4E90701C4
:101610000843216808602068016841F00101016009
:101620006564202084F84100256384F8425000203E
:1016300070BD0000008000022DE9F84F044690F8CC
:101640004100DDF828A01F4690468B4620287ED119
:1016500094F8400001287AD0012084F84000FFF778
:1016600035FF0646012200901923D103204601F0E0
:10167000BDFBE0BB222084F84100102084F842002A
:1016800000256564C4F8248067856563618D3148F1
:10169000FF274FF080784FF00079FF2903D9278585
:1016A0003A46009039E0618D218500903AE0594634
:1016B000204601F085FB13E001F0C4FBB8B92068B7
:1016C000406A616A0870606A401C6062208D401E3A
:1016D00080B22085618D491E6185618D01B168B13F
:1016E000608D3246002851462046E5D100E002E0F8
:1016F00001F0EAFBD0B1012000F030B853460022DF
:1017000080212046009601F071FB0028F3D1608D06
:10171000FF2804D927853A4600954346C7E7608DE0
:101720002085009594F828204B46C0E721682020AA
:10173000C86121684A68084B1A404A6084F8410031
:1017400084F8425084F840500020D5E7FFE702209B
:10175000D2E700000024008000E800FE18BCBDE8CD
:10176000E08F00002DE9F84F044690F84100DDF8C5
:1017700028A01F4690468B4620287ED194F8400032
:1017800001287AD0012084F84000FFF79FFE06462A
:10179000012200901923D103204601F027FBE0BB72
:1017A000212084F84100102084F84200002565645F
:1017B000C4F8248067856563618D3148FF274FF049
:1017C00080784FF00079FF2903D927853A460090A9
:1017D00039E0618D218500903AE05946204601F0BC
:1017E000EFFA13E001F096FBB8B9606A216800785F
:1017F0008862606A401C6062608D401E6085208D3A
:10180000401E80B22085618D01B168B1608D324685
:10181000002851462046E5D100E002E001F054FBEB
:10182000D0B1012000F030B853460022802120467C
:10183000009601F0DBFA0028F3D1608DFF2804D96F
:1018400027853A4600954346C7E7608D2085009579
:1018500094F828204B46C0E721682020C861216801
:101860004A68084B1A404A6084F8410084F84250A4
:1018700084F840500020D5E7FFE70220D2E70000BF
:101880000020008000E800FE18BCBDE8E08F0000EA
:1018900010B586B0044614216846FEF7CCFC134907
:1018A000206888421FD1124CE06C40F00200E064D6
:1018B000E06C694600F0020005904FF44070009023
:1018C0001220019001200290032003900420049034
:1018D0000848FFF7BBFCA06D40F40010A065A06DA8
:1018E00000F40010059006B010BD00000054004048
:1018F0000010024000040048024881680278114448
:101900008160704718000020094810B50168002464
:1019100041F480710160032000F072F8002000F0B3
:1019200009F808B1012401E000F026F8204610BDB6
:101930000020024070B50E4E05460024307898B164
:101940004FF47A71B1FBF0F00A490968B1FBF0F08D
:1019500000F026FE40B9102D06D200222946501E66
:1019600000F02EF8756000E00124204670BD0000F4
:101970001800002024000020094808B5016E41F03D
:1019800001010166016E01F001010091816D41F0DC
:1019900080518165806D00F08050009008BD00008E
:1019A00000100240002809DB00F01F0201219140D5
:1019B0004009800000F1E020C0F8001170470000ED
:1019C000F0B40E4B1B680C46C3F30223C3F10705AA
:1019D000042D00D90425191D072901D2002300E098
:1019E000DB1E012606FA05F1491E214099409E4062
:1019F000761E16403143F0BC02F0D4B80CED00E086
:101A0000064900F0070208684FF6FF03184040EA55
:101A10000220034A10430860704700000CED00E00C
:101A20000000FA051649B0F5007F0868C0F34120B0
:101A300009D0022805D0086820F4C06040F4806016
:101A40000860002070470128FBD0086820F4C060BF
:101A500040F4007008600B483222006850430A4A84
:101A6000B0FBF2F0401C00E0401E4A69520501D56F
:101A70000028F9D148694005E3D5032070470000EC
:101A8000007000402400002040420F00024800681F
:101A900000F4C06070470000007000400248016818
:101AA00041F4807101607047007000400248016895
:101AB00041F0040101607047001002402DE9F84F29
:101AC000044600270088E54D3E46010504F1200B41
:101AD0001DD5606E78B1B0F5800F11D0B0F5000F54
:101AE00004D0B0F5400F22D001270FE0E86840F4A1
:101AF0008030E8601BE00021201D01F09BFB03E02B
:101B00000021584601F02CFC070010D03E462088EA
:101B1000C00426D5A06EC0B1B0F1807F1AD0B0F15C
:101B2000007F0DD0B0F1407F19D0012718E0D5F823
:101B30008800616E20F440000843C5F88800E6E79D
:101B4000E86840F48030E86009E00021201D01F0E1
:101B500071FB03E00021584601F002FC0746F7B193
:101B60003E46206880033AD5A86D4FF00008C000BB
:101B700009D4A86D40F08050A865A86D4FF0010809
:101B800000F080500090DFF8D8A2DAF8001041F49D
:101B90008071CAF80010FFF799FC814610E0D5F873
:101BA0008800A16E20F040700843C5F88800D8E78F
:101BB000FFF78CFCA0EB0900022801D9032705E000
:101BC000DAF80000C005F3D5002F7CD04FEA0706F5
:101BD000B8F1000F03D0A86D20F08050A8652078E0
:101BE000C00707D0D5F88800A16B20F00300084398
:101BF000C5F888002078800707D5D5F88800E16B04
:101C000020F00C000843C5F888002078400707D56D
:101C1000D5F88800216C20F030000843C5F8880012
:101C20002078000707D5D5F88800616C20F0C00047
:101C30000843C5F888002078C00607D5D5F8880085
:101C4000A16C20F440700843C5F888002078800615
:101C500007D5D5F88800E16C20F440600843C5F84A
:101C600088002088800507D5D5F88800E16D20F42C
:101C700040200843C5F888002088400507D5D5F8DE
:101C80008800216E20F440100843C5F888002078B1
:101C9000400607D5D5F88800216D20F44050084350
:101CA000C5F888002078000607D5D5F88800616D52
:101CB00020F440400843C5F888002088C00509D5B5
:101CC000D5F8880000E01CE0A16D20F44030084306
:101CD000C5F8880020884FF0006780044FF08068C6
:101CE0004FD5D5F88800E16E20F040600843C5F874
:101CF0008800E06EB8423CD1E86840F48010E860AB
:101D00003FE0D5F8900010F4407015D0D4F884105E
:101D1000814211D0D5F89000D5F8901020F4407091
:101D200041F48031C5F89010D5F8901021F480313D
:101D3000C5F89010C5F89000C00710D0FFF7C6FB9B
:101D4000074641F2883906E0FFF7C0FBC11B494551
:101D500001D903263CE7D5F890008007F4D5D5F8E3
:101D60009000D4F8841020F440700843C5F8900027
:101D70002EE7404505D10121201D01F05BFA00B19D
:101D800006462068000317D5D5F88800216F20F09B
:101D900040600843C5F88800206FB84204D1E86865
:101DA00040F48010E86007E0404505D10121201D86
:101DB00001F040FA00B106462068400317D5D5F877
:101DC0008800616F20F040600843C5F88800606FAC
:101DD000B84204D1E86840F48010E86007E040456C
:101DE00005D10121201D01F025FA00B10646208809
:101DF00040041AD5D5F88800A16F20F04050084360
:101E0000C5F88800A06FB0F1805F03D0B0F1005F2B
:101E100005D00AE00221201D01F00CFA03E00221A6
:101E2000584601F09DFA00B106462088000407D507
:101E3000D5F88800E16F20F080400843C5F888009D
:101E40002068C00307D555F8880FD4F8801020F01B
:101E5000004008432860304600F004B800100240FB
:101E60000070004018BCBDE8E08F00002DE9F0478D
:101E70000F46050058D0404E306800F00700B842C9
:101E800009D2306820F0070038433060306800F035
:101E90000700B84248D12878384CC0072CD0686871
:101EA000032811D0022812D0216898B149050029D1
:101EB0003ADAA16821F003010143A160FFF706FBB4
:101EC000804641F2883910E021688901EFE72168F6
:101ED0008903ECE78907EAE7FFF7F8FAA0EB0801C6
:101EE000494502D90320BDE8F087A068696800F081
:101EF0000C00B0EB810FEFD12878800705D5A068E2
:101F0000A96820F0F0000843A060306800F00700E6
:101F1000B8420BD9306820F0070038433060306891
:101F200000F00700B84201D00120DCE72878400724
:101F300005D5A068E96820F4E0600843A06028782F
:101F4000000706D5A068296920F4605040EAC10066
:101F5000A06000F03FF8A168094AC1F30311515C89
:101F600001F01F01C8400749086007480068BDE844
:101F7000F047FFF7DFBC00000020024000100240E5
:101F8000283F0008240000201C00002005480649C6
:101F900000688968054AC1F30221515C01F01F0104
:101FA000C84070472400002000100240683F00082D
:101FB0000548064900688968054AC1F3C221515C99
:101FC00001F01F01C84070472400002000100240AB
:101FD000683F000870B52549002318468A68CC6818
:101FE00012F00C0204F00306214C4FEA640509D0FC
:101FF0000C2A05D0042A32D0082A00D1284670BD08
:10200000012E10D10B681B0704D4D1F89430C3F310
:10201000032302E00B68C3F30313164E56F8233074
:10202000DAB10C2AEBD1C86800F00300022818D0FE
:10203000032818D01846CA68CB68C2F30212C3F34B
:1020400006234343521CB3FBF2F2C868C0F341605D
:10205000401C4000B2FBF0F070BD184670BD204639
:1020600070BD2046E7E72846E5E700000010024083
:102070000024F400383F00082DE9F84304006FD035
:10208000FE4DA86800F00C06E86800F00307207811
:10209000C00664D576B10C2E01D1012F0AD0A069FB
:1020A000002828687AD040F001002860FFF70EFA77
:1020B00080465DE02868800702D5A0690028DED050
:1020C000216A2868000703D5286800F0F00004E0C2
:1020D000D5F89400F02202EA1010814216D9084681
:1020E00001F0C2F900283BD1286840F008002860C0
:1020F0002868216A20F0F000084328606868E169D8
:1021000020F47F4040EA0120686016E0286840F033
:10211000080028602868216A20F0F0000843286041
:102120006868E16920F47F4040EA0120686026B9D0
:10213000206A01F099F90028D5D1FFF74BFFA96873
:10214000CF4AC1F30311515C01F01F01C840CD49D2
:102150000860CD480068FFF7EDFB00287ED12EE037
:10216000CAE000BFFFF7B2F9A0EB0800022876D85A
:1021700028688007F6D5286840F00800286028689D
:10218000216A20F0F000084328606868E16920F4C3
:102190007F4040EA0120686011E0FFE720F0010085
:1021A0002860FFF793F9804606E000BFFFF78EF93D
:1021B000A0EB08000228DAD828688007F6D4207837
:1021C000C00740D0082E18D00C2E01D1032F14D0F8
:1021D0006068B0F5803F17D0B0F5A02F286817D001
:1021E00020F480302860286820F48020286060680F
:1021F000E0B1FFF76BF9804614E02868800322D530
:102200006068002878D01EE0286840F48030EDE750
:1022100040F480202860F7E7FFF758F9A0EB0800AA
:102220006428A4D828688003F6D50CE0FFF74EF99F
:10223000804605E0FFF74AF9A0EB0800642896D82D
:1022400028688003F6D4207880073BD5042E11D06F
:102250000C2E01D1022F0DD0E06801E092E1F1E0F7
:10226000002828681ED040F480702860FFF72EF9FF
:1022700007460CE0286840050CD5E0680028C1D06E
:1022800008E000BFFFF722F9C01B022893D8286896
:102290004005F7D56868217C20F0F85040EA0160DD
:1022A00068600FE020F480702860FFF70FF90746A0
:1022B00005E000BFFFF70AF9C01B0228B1D8286863
:1022C0004005F7D42078000729D560690028D5F8A3
:1022D000940012D040F00100C5F89400FFF7F6F822
:1022E000074604E0FFF7F2F8C01B022899D8D5F89A
:1022F00094008007F6D512E000E120F00100C5F857
:102300009400FFF7E3F8074605E000BFFFF7DEF8AB
:10231000C01B022885D8D5F894008007F6D4207811
:10232000400766D5A86D0027C00008D4A86D40F00E
:102330008050A865A86D012700F080500090534898
:102340000168C90512D40168814641F480710160B9
:10235000FFF7BCF8804605E0FFF7B8F8A0EB0800EF
:1023600002286FD8D9F80000C005F5D5A06801286B
:1023700016D00528D5F8900017D020F00100C5F838
:102380009000D5F8900020F0040000BFC5F8900040
:10239000A06841F28839C0B1FFF798F880460FE095
:1023A000D5F8900040F00100F0E740F00400C5F8D7
:1023B0009000F5E7FFF78AF8A0EB0801494541D8FE
:1023C000D5F890008007F5D50EE0FFF77FF880463E
:1023D00006E000BFFFF77AF8A0EB0801494531D8C5
:1023E000D5F890008007F5D41FB1A86D20F080507B
:1023F000A865A06A38B302280AD00C2E7ED02868BF
:1024000020F080702860286810F0205F77D0AAE064
:10241000E868E26A00F0030191422BD1216B00F0E1
:10242000700209011039914224D1626B00F4FE411F
:10243000B1EB022F1ED1A26B00F40031072A03D0AA
:10244000012202E09DE089E00022914212D1A18F99
:1024500000F4C00249084905A1F50011914209D1D3
:1024600094F8401000F0C06049084906A1F10071DD
:1024700081425CD00C2E41D0286809E00010024057
:10248000283F0008240000201C00002000700040AD
:1024900040017ED42868C0007BD4286820F080707A
:1024A0002860FFF713F8064605E000BFFFF70EF8B7
:1024B000801B022865D828688001F7D4D4E90B0175
:1024C0006FF00F0202EB01110843A18F520449087B
:1024D00002EB4151626B41EA0221084394F840103B
:1024E0004FF07E42490802EB41610843A16B0909A4
:1024F00040EA4140E968284A114001E049E02EE005
:102500000843E860286840F080702860E86840F080
:102510008070E860FEF7DAFF044604E0FEF7D6FFBD
:10252000001B02282DD828688001F7D52FE02868E5
:1025300080012CD4286840F080702860E86840F062
:102540008070E860FEF7C2FF044604E0FEF7BEFFBD
:10255000001B022815D828688001F7D517E0E86825
:1025600020F00300E860E8680C490840E860FEF7E6
:10257000ADFF044608E000BFFEF7A8FF001B0228DD
:1025800002D90320BDE8F88328688001F4D4002034
:10259000F8E70120F6E700008C809DF9FFFFEEFED2
:1025A00010B5401EB0F1807F01D3012010BD4FF067
:1025B000E02460610F21601701F0F4FA0020A061AF
:1025C00007202061002010BD704770477047000051
:1025D000F0B590F83C20012A39D0012480F83C4025
:1025E000022280F83D20026853689568194E1A4F00
:1025F000B24201D0BA4204D123F4700C4B6843EAD2
:102600000C0323F0700C0B6843EA0C035360026860
:10261000B24210D0B2F1804F0DD0104B9A420AD086
:102620000F4B9A4207D00F4B9A4204D0BA4202D0C5
:102630000D4B9A4204D1896825F0800319439160BB
:1026400080F83D40002180F83C100846F0BD022093
:10265000F0BD0000002C01400034014000040040A7
:1026600000080040000C00400040014010B5017F10
:10267000012928D1144CE18859B1012923D1002125
:1026800000F073FAE060A168884209D9A0EB01006C
:1026900010E04FF0000100F068FAA060012011E0A6
:1026A00001D3206907E04FF6FF72A2EB0101084455
:1026B00000F1010020614FF47A71B1FBF0F060612C
:1026C0004FF00000E08010BD000000202DE9F04137
:1026D000054690F83C000C46012836D0012085F8CC
:1026E0003C008AB3042A42D02868082A51D0D4E991
:1026F0000023E168066A26F480560662C669076A06
:1027000026F4407646EA03234FF6FF7606EA0131C7
:1027100023F4704319434FF4204627F4204306EA7C
:1027200002321A43C16102622868C16921F4406122
:10273000C1612868C169A26841EA0221C161002023
:1027400085F83C00BDE8F08101E00220FAE7D4E919
:102750000012E368286800F0AFFF2868816921F063
:102760000C01816128688169A26811430FE0D4E9F6
:102770000012E368286800F0DBFF2868816921F413
:102780004061816128688169A26841EA0221816112
:10279000D5E7D4E90027267B016A21F48071016224
:1027A000C169036A21F00301394321F0F0073107C1
:1027B0004FF4206647EA116123F4206306EA0222FF
:1027C0001A43C16102622868C16921F00C01C1612C
:1027D0002868C169A2681143B0E710B5040003D0AE
:1027E00094F83D0010B107E0012010BD002084F8EE
:1027F0003C00204600F022F8022084F83D00211D14
:10280000206800F0EBFE012084F8480084F83E00C8
:1028100084F83F0084F8400084F8410084F84200C6
:1028200084F8430084F8440084F8450084F84600A6
:1028300084F8470084F83D00002010BD10B586B034
:10284000044614216846FDF7F6FC154920688842C5
:1028500024D11448816D41F002018165816D01F040
:1028600002010591C16C41F00401C164C06C0021FA
:1028700000F004000590402000900220CDE9010105
:10288000CDE9031069460848FEF7E0FC002201216B
:102890001D20FFF795F81D20FFF784F806B010BD46
:1028A00000040040001002400008004810B5044633
:1028B00079B1042912D0082915D00C2918D0102973
:1028C00019D094F8430000BF94F84720012817D18D
:1028D00014E094F83E0094F84420F7E794F83F00A1
:1028E00094F84520F2E794F8400094F84620EDE78C
:1028F00094F84100E8E794F84200E5E7012A01D0A6
:10290000012010BD022071B1042915D008291CD066
:102910000C294BD010294CD084F8430084F8470090
:102920000C291BD148E084F83E0084F8440020685C
:10293000C26842F0020210E084F83F0084F84500CB
:102940002068C26842F0040207E084F8400084F87E
:1029500046002068C26842F00802C2600122206876
:1029600000F09CFE17492068884211D0B0F1804FDA
:102970000ED0154988420BD01449884208D014491A
:10298000884205D01349884202D01349884207D1B2
:102990008168124A1140062906D0B1F5803F03D064
:1029A000016841F001010160002010BD84F8410080
:1029B000B4E784F84200B1E72068C26842F0100230
:1029C000CBE70000002C014000040040000800405C
:1029D000000C0040003401400040014007000100AD
:1029E00070B50446006801694FF00005C9438907C6
:1029F00015D4C168C943890711D4E91E01610120BA
:102A00002077206880698007204602D0FFF72EFEDD
:102A100004E000F0A7F8204600F0A5F8257720682C
:102A20000169C943490717D4C168C943490713D489
:102A30006FF004010161022020772068806910F4A2
:102A4000407F204602D0FFF711FE04E000F08AF834
:102A5000204600F088F8257720680169C9430907F6
:102A600016D4C168C943090712D46FF00801016187
:102A7000042020772068C0698007204602D0FFF735
:102A8000F5FD04E000F06EF8204600F06CF82577C4
:102A900020680169C943C90617D4C168C943C9067A
:102AA00013D46FF010010161082020772068C069FD
:102AB00010F4407F204602D0FFF7D8FD04E000F07C
:102AC00051F8204600F04FF8257720680169C94386
:102AD000C90708D1C168C943C90704D1891E01616A
:102AE000204600F041F820680169C943090609D46D
:102AF000C168C943090605D46FF080010161204611
:102B0000FFF763FD20680169C943C90509D4C1689D
:102B1000C943090605D46FF4807101612046FFF7AF
:102B200053FD20680169C943490609D4C168C943F6
:102B3000490605D46FF040010161204600F02AF8F3
:102B400020680169C94389060BD4C168C943890655
:102B500007D46FF0200101612046BDE87040FFF707
:102B600035BD70BD7047704770470246002041B1C7
:102B7000042909D008290AD00C2901D11068006C59
:102B800070471068406B70471068806B7047106822
:102B9000C06B7047704710B5040002D0606F10B171
:102BA00007E0012010BD002084F87000204600F0EE
:102BB00025F8242060672068016821F00101016088
:102BC000204600F061FE0128ECD0606A10B120467A
:102BD00000F0C9FD2068416821F4904141602068FF
:102BE000816821F02A0181602068016841F00101BB
:102BF00001602046BDE8104000F019BE10B586B057
:102C0000044614216846FDF716FB134920688842E4
:102C10001FD11248816D41F400318165816D01F44D
:102C200000310591C16C41F00101C164C06C69467D
:102C300000F0010005900C2000900220019000207F
:102C4000029003200390072004904FF09040FEF77D
:102C5000FDFA06B010BD0000004400400010024024
:102C60002DE9F8430446406F1F4616460D462028BE
:102C70004FD1CDB1C6B194F87000012849D00120E0
:102C800084F870004FF00008C4F87C802120606751
:102C9000FEF71CFCA4F850608146A4F85260A068BE
:102CA000B0F5805F03D004E00120BDE8F88320691F
:102CB00028B12E465FF0000584F8708010E00026F1
:102CC000FAE78021204600F005FFB8B9C6B116F832
:102CD000010B21680885B4F85200401EA4F8520088
:102CE000B4F852004B464FF0000200970028E8D19C
:102CF0004FF04001204600F0EDFE30B10320D4E754
:102D000035F8020BC0F30800E3E7202060670020DD
:102D1000CBE70220C9E7FEE701688A69D243920740
:102D200001D400228A6200688169C943C90703D0BF
:102D3000816941F001018161704700002DE9F04196
:102D40000446006890460E468069C043C00633D4EE
:102D50000025202720688069C043800615D5701C97
:102D6000F8D0FEF7B3FBA0EB0800B04201D8002E6C
:102D7000F0D154F8440F40F0200044F80409677083
:102D8000A57025700120BDE8F08121681020C86180
:102D90002068C7612046FFF7BFFF54F8440B416825
:102DA000064A11404160206840F0040044F82009C0
:102DB0006777A5772577E5E70020E4E700E800FEE0
:102DC000F0B50568059C68684FF48066064FC1F34E
:102DD000090106EA545641EA02413E431943B04311
:102DE000214308436860F0BDFF63FF032DE9F04114
:102DF0001D4617460E460446DDF8188008E0681C9C
:102E000006D0FEF763FBA0EB0800A8420BD855B133
:102E10002068806936EA000012D00020B842EED067
:102E20000020BDE8F08154F8440F40F0200044F841
:102E30000409202060700020A07020700120F0E7BD
:102E40000120EBE72DE9F041002690460F460446AD
:102E5000202525E0424639462046FFF76FFF78BB24
:102E600020688069C043800613D420688169C94303
:102E7000490701D4218DC1B9C56154F8440B41689B
:102E8000104A1140416044F820696577A67726779B
:102E900016E0FEF71BFBA0EB0800B84208D83FB1D4
:102EA00020688069C0434007D4D40020BDE8F08189
:102EB00054F8440F40F0200044F80409657026706F
:102EC0000120F3E700E800FE70B516460D46044603
:102ED0000DE0324629462046FFF730FF08B10120B9
:102EE00070BDFEF7F3FA801BA84207D835B1206801
:102EF0008069C0438006ECD4002070BD54F8440FB4
:102F000040F0200044F80409202060700020A070E8
:102F10002070E4E770B516460D4604460FE03246D1
:102F200029462046FFF70AFF08B1012070BD681C42
:102F300005D0FEF7CBFA801BA84207D835B1206830
:102F40008069C0438007EAD4002070BD54F8440F64
:102F500040F0200044F80409202060700020A07098
:102F60002070E2E700EB8100006E00F0F84070474F
:102F70008068C0F3C00070478068C0F3800070476D
:102F80008068C0F380007047C06810F4406F01D0C3
:102F90000020704701207047042303EAD15310B585
:102FA00018444369C1F3045107248C40A3438A4069
:102FB0001343436110BD00EB8100016E21F000411D
:102FC000114301667047000030B589B000240694B3
:102FD0000794182168460894FDF72DF918481749F9
:102FE000042501604FF4E01141601021C0E9021492
:102FF000C0E90445047601214176C16180F8204092
:103000008462C46280F83040446380F83840FDF741
:10301000E5FE06A90A480694FDF7FEFA0948009065
:1030200006200190022002907F200594CDE903053F
:1030300069460348FDF768FB09B030BD0000045045
:10304000280000202000F0142DE9F04387B014215F
:103050006846FDF7F0F83C48C16C41F00401C164DA
:10306000C16C01F004010591C16C41F08001C164A3
:10307000C16C01F080010591C16C41F00101C16496
:10308000C16C01F001010591C16C41F00201C16404
:10309000C06C4FF4787700F002004FF09048059034
:1030A000002239464046FEF70CFADFF8A0904FF4B4
:1030B0008066002231464846FEF703FA244DF000B0
:1030C000CDE900050024694602942248FEF7BEF8C7
:1030D00000970127CDE90174694640460394FEF745
:1030E000B5F80096CDE90174694648460394FEF7A9
:1030F000ADF80096CDE9015469464046FEF7A6F8C2
:103100007020CDE90005694602944846FEF79EF816
:10311000002202210A20FEF753FC0A20FEF742FC9F
:10312000002202211720FEF74BFC1720FEF73AFC85
:10313000002202212820FEF743FC2820FEF732FC63
:1031400007B0BDE8F0830000001002400004004812
:1031500000002110000800480E4810B50C4901601D
:103160000D49416000210122C0E902120161416163
:103170008161C1610162FEF703FA00210548FEF793
:10318000ABF9BDE8104000210248FEF7D0B90000BD
:10319000005400408C0000205D3E302010B588B007
:1031A0000024164805940694049400940194029413
:1031B0001149039401604BF67F31C0E901144FF6C9
:1031C000FF71C0E903148461FFF707FB049404A9AD
:1031D0000A480694FFF7FCF90120CDE9004002946B
:1031E0000022694605480394FFF770FA002103485E
:1031F000FFF75CFB08B010BD00040040D8000020C1
:103200000948084901604FF4E131416000218160C3
:103210000C22C160C0E904128161C1610162416296
:10322000FFF7B9BC0044004024010020FEE77047CE
:10323000704700002DE9F041444C05468846E0689F
:103240000026810728680DD0E16801F00301814262
:1032500016D1A8B1E0686968C0F30210401C88422A
:103260000ED120E0012804D0022805D0032807D180
:1032700008E02168890701E021684905002907DB8A
:1032800001265FE02168890302D421684903F5E73C
:10329000E1686A686FF00F0321F0730103EB02121B
:1032A00011430143E160206820F080602060FEF758
:1032B0000DF9074605E000BFFEF708F9C01B02281C
:1032C00037D820680001F7D4B8F1000F18D0B8F152
:1032D000010F1ED0287D4FF07E41400801EB406079
:1032E000A96840EA01202169194A11400843206178
:1032F000206840F080602060FEF7E8F807461AE09A
:10330000A868E9680002090940EA41402169114AB8
:10331000EBE7288A1049400801EB4050A96840EAD1
:10332000012021690D4AE0E7FEF7D0F8C01B022812
:1033300001D9032606E020680001F5D52069A969B6
:10334000084320613046BDE8F081000000100240D3
:10335000FF80FFF9FF80FDFF0000E0FFFF809FFF7F
:103360002DE9F0413D4C06468846E068002581077E
:1033700030680DD0E16801F00301814216D1A8B197
:10338000E0687168C0F30210401C88420ED120E052
:10339000012804D0022805D0032807D108E02168BD
:1033A000890701E021684905002907DB012551E073
:1033B0002168890302D421684903F5E7E16872684E
:1033C0006FF00F0321F0730103EB0212114301436D
:1033D000E160206820F080502060FEF777F8074613
:1033E00005E000BFFEF772F8C01B022829D820684C
:1033F0008000F7D4B8F1000F15D0307C4FF07E413B
:10340000400801EB4060B16840EA01206169144A5C
:10341000114008436061206840F080502060FEF752
:1034200055F807460FE0B068F1680002090940EA64
:10343000414061690B4AEBE7FEF748F8C01B0228E0
:1034400001D9032506E020688000F5D5606971691F
:10345000084360612846BDE8F0810000001002408A
:10346000FF80FFF9FF80FDFFF8B51C4D06460024E4
:10347000A86DC00002D5FEF709FB0DE0A86D40F075
:103480008050A865A86D00F080500090FEF7FEFA0D
:10349000A96D21F08051A965B0F5007F04D0802E80
:1034A00007D94FF003040AE0802E08D9A02E01D8D6
:1034B00004E001D1022402E0702E00D1012408486A
:1034C000016821F0070121430160006800F0070056
:1034D000A04201D00120F8BD0020F8BD001002403C
:1034E000002002407047FEF707BA000030B5B9B0BF
:1034F000442122A8FCF79FFE142133A8FCF79BFE71
:1035000088216846FCF797FEFEF7C8FA1E4850F877
:10351000901F21F018010160162001252290280239
:10352000CDE924501020269000242895B020CDE924
:10353000294022A82C94FEF79FFD0F20CDE93304EB
:1035400035943694022133A83794FEF78FFC0F94FC
:1035500044F2420014940090C00608211E90CDE968
:10356000025102200721CDE9041001900690C00508
:1035700007906846FEF7A2FA6802FEF753FAFEF7D4
:1035800095FA39B030BD0000001002400D480168C6
:1035900041F4700101600C48016841F001010160D3
:1035A000002181600268094B1A4002608214C260E7
:1035B000026822F48022026081610249C0038039DE
:1035C0000860704788ED00E000100240FFFFF6EA57
:1035D0000148FFF705BA0000D80000202DE9F047A8
:1035E0000268264B264D274E274F284C4FF0804A25
:1035F000984209D0504507D0A84205D0B04203D028
:10360000B84201D0A04204D122F0700C4A6842EACC
:103610000C02DFF87CC0DFF87C80DFF87C909842F9
:103620000FD050450DD0A8420BD0B04209D0B842BF
:1036300007D0A04205D0604503D0404501D04845A1
:1036400003D122F44075CA682A434D6922F08002F2
:103650002A4302608A68C2620A688262984207D07E
:10366000A04205D0604503D0404501D0484501D176
:103670000969016301214161BDE8F087002C014027
:103680000004004000080040000C004000340140ED
:1036900000400140004401400048014010B501F0E5
:1036A0001F030121046A99408C430462016A9A4015
:1036B0001143016210BD000070B5046A24F00104DA
:1036C00004628469056A144EB04211D0B0F1804F93
:1036D0000ED0124EB0420BD0114EB04208D0114E57
:1036E000B04205D0104EB04202D0104EB04203D1CD
:1036F00024F00304144301E044F001041A0724F009
:10370000F00444EA126225F00A0301F00A011943A9
:103710008261016270BD0000002C01400004004085
:1037200000080040000C004000340140004001400F
:1037300030B5046A24F0100404628469056A24F434
:10374000407444EA022222F470444FF6FF7202EA07
:1037500003322243A02425F0A00304EA01111943F7
:103760008261016230BD90F82410C90706D001685B
:103770004A68836A22F400321A434A6090F824109F
:10378000890706D501684A68C36A22F480321A4361
:103790004A6090F82410490706D501684A68036B0F
:1037A00022F480221A434A6090F82410090706D5B3
:1037B00001684A68436B22F400421A434A6090F859
:1037C0002410C90606D501688A68836B22F48052EA
:1037D0001A438A6090F82410890606D501688A6821
:1037E000C36B22F400521A438A6090F824104906F1
:1037F00011D501684A68036C22F480121A434A60AA
:10380000016CB1F5801F06D101684A68436C22F44F
:10381000C0021A434A6090F82410090606D50168D0
:103820004A68806C22F4002202434A607047F8B56F
:1038300000260446C667FDF749FE05462068006875
:103840006FF07E47000708D52B4600224FF4001189
:103850002046009700F03EF960B9206800684007F4
:103860000AD52B4600224FF480012046009700F035
:1038700031F908B10320F8BD20206067A06784F803
:1038800070600020F8BD00002DE9F0410446016899
:1038900080682269E3691043626900251A43104376
:1038A000824F0A68824B1A4002430A6020684168CE
:1038B000E26821F44051114341602168A069B94296
:1038C00001D0226A10438A6822F4306202438A607F
:1038D0007849226878488A420DD1D0F8880010F0E3
:1038E000030006D0012866D0022854D0032851D105
:1038F00063E001204FE071498A420BD1D0F8880083
:1039000010F00C0047D0042845D0082851D00C28CE
:1039100040D152E06A498A420BD1D0F8880010F0B9
:10392000300038D0102846D0202842D0302831D15D
:1039300043E064498A420BD1D0F8880010F0C000FF
:1039400029D0402837D0802833D0C02822D134E075
:103950005D498A420ED1D0F8880010F440701AD028
:10396000B0F5807F27D0B0F5007F22D0B0F5407F42
:1039700010D122E0BA420DD1D0F8880010F4406096
:1039800009D0B0F5806F16D0B0F5006F11D0B0F54A
:10399000406F12D010204D4B00264FF40041BA4228
:1039A0002ED160B1022813D004280BD0082874D17E
:1039B0000DE00220EFE70420EDE70820EBE7FEF73B
:1039C000E5FA01E0FEF706FB030001D169E00B46D2
:1039D000626802EB420098425FD8B3EB023F5CD8CA
:1039E000190E180273084FEA3207C0195941002313
:1039F000FCF7E6FB364AA0F5407191424FD94CE006
:103A0000E2694FF6EF778A4228D1092845D2DFE8EC
:103A100000F0050811440D4444441000FEF7B6FAC6
:103A200001E0FEF7C5FA030004D13AE0FEF7D2FA4E
:103A3000F9E70B466068590001EB5001B1FBF0F06B
:103A400080B2A0F11001B94227D84FF6F0710140C1
:103A5000C0F3420001432068C16022E009281CD263
:103A6000DFE800F00508111B0D1B1B1B1000FEF703
:103A70008DFA01E0FEF79CFA030004D111E0FEF795
:103A8000A9FAF9E70B46606803EB5001B1FBF0F0CF
:103A900080B2A0F11001B94201D9012501E02168ED
:103AA000C860266628466666BDE8F0810080004052
:103AB000F369FFEF0038014000100240004400406D
:103AC00000480040004C0040005000400024F4003A
:103AD000FFFC0F002DE9F0479A4617460E460446B4
:103AE0004FF000094FF02008089D39E0681C37D0DE
:103AF000FDF7ECFCA0EB0A00A84222D80DB3206829
:103B0000016849072CD5C069C043000528D4216845
:103B10004FF4006008622068016821F4D0710160F0
:103B20002068816821F001018160C4F87480C4F8C4
:103B30007880C4F87C8000BF84F870900320BDE8D2
:103B4000F0872068016821F4D071016020688168E5
:103B500021F001018160C4F87480C4F87880EBE73B
:103B60002068C06936EA000004D00020B842BDD009
:103B70000020E4E70120F9E7FEE700000FB4084B5E
:103B800010B504A902AA039800F02CF8044602A973
:103B9000002000F0D4F8204610BC5DF814FB0000B3
:103BA0003F3D00080907090E002804DB00F1E02072
:103BB00080F80014704700F00F0000F1E02080F85A
:103BC000141D704702E008C8121F08C1002AFAD16C
:103BD00070477047002001E001C1121F002AFBD18D
:103BE000704700002DE9FF4F89B09B460446002531
:103BF00006E025280BD05A460B999047641C6D1C93
:103C000020780028F5D10DB0284600F095B800279F
:103C1000B8460122474900E0074314F8013F203B22
:103C200002FA03F00842F7D120782E2819D114F8AF
:103C3000010F47F004072A280ED06FF02F022078DA
:103C4000A0F1300109290CD808EB880102EB4101F1
:103C500000EB0108641CF2E70A98641C50F8048B1E
:103C60000A9020780028CED0642808D0692806D091
:103C700075281ED05A460B9990476D1C58E00A993A
:103C80004FF00A0901C90A91002802DA40422D21A9
:103C900002E0390504D52B218DF82010012103E025
:103CA000F90704D02021F7E78A4608AE0DE000218D
:103CB000FAE70A994FF00A0901C90A91F7E749465C
:103CC000FCF776FB303106F8011D0028F7D1ADEB8B
:103CD000060000F12009780701D44FF00108C8451B
:103CE00002DDA8EB090000E000208046002706E086
:103CF00008A85A46C05D0B9990476D1C7F1C57451C
:103D0000F6DB04E030205A460B9990476D1CB8F161
:103D10000001A8F10108F5DC05E016F8010B5A4690
:103D20000B9990476D1CB9F10001A9F10109F4DC70
:103D3000641C65E70928010030BCBDE8C08F0A6833
:103D4000531C0B60107070478CB0FDF7DDFDFFF762
:103D5000CDFBFFF779F9FFF737F9FFF751FAFFF7D6
:103D6000FBF9FFF71BFA5048FDF754F94FA101A8E2
:103D7000FCF773FA01A8FCF769FA82B24A484FF0DF
:103D8000FF352B4601A9FC30FEF76AFFDFF84891AA
:103D9000524C4FF480684FF0904600272021304667
:103DA000FDF787FB607850B1012803D0022808D0C6
:103DB00003280BD141464846FDF77BFB06E0002275
:103DC00000E0012241464846FDF77BFBA07820B188
:103DD0004FF400713046FDF76CFBFA20FDF7D6F981
:103DE00031488DF80470022301AA902164300095B7
:103DF000FDF7B8FC08B13AA109E02B48022301AA5B
:103E0000902164300095FDF717FC20B139A101A87D
:103E1000FCF723FA2DE09DF804009DF80510000141
:103E200040EA1110B0F5006F02DB40F4704000B2C0
:103E3000FCF791FA9FED341B53EC112BFCF716FAAB
:103E4000FCF79AFA00EE100ADFED310A642020EE4A
:103E5000200ABCEEC00A10EE101AB1FBF0F200FB13
:103E6000121310EE101AB1FBF0F22AA101A8FFF70D
:103E700085FE01A8FCF7EAF982B20B482B4601A99E
:103E8000FC30FEF7EDFE26A101A86269FFF776FE81
:103E900001A8FCF7DBF982B203482B4601A9FC30EC
:103EA000FEF7DEFE7AE70000280000200A204175B8
:103EB000746F6D6F746976652053797374656D7373
:103EC00020323A2053757370656E73696F6E20648B
:103ED000656D6F0D0A00000000040048000000201E
:103EE0004572726F7220696E204932432054780DFA
:103EF0000A0000004572726F7220696E20493243D9
:103F00002052780D0A000000000000000000B03FC1
:103F10000000C84225752E257520430D0A000000BB
:103F2000257520487A0D0A000000000000000000FE
:103F30000102030406070809A0860100400D0300E2
:103F4000801A060000350C0040420F0080841E00DD
:103F500000093D0000127A000024F40000366E01D2
:103F60000048E801006CDC020000000001020304CC
:103F7000903F00080000002028000000C43B00081B
:103F8000B83F00082800002080050000D43B00084E
:103F90000000000000000000000000000000000021
:103FA0000000000000000000010000001000000000
:083FB0000000000000093D00C3
:040000050800018965
:00000001FF
